{
  "contractName": "supplyChain",
  "abi": [
    {
      "anonymous": false,
      "inputs": [
        {
          "indexed": false,
          "internalType": "string",
          "name": "orderno",
          "type": "string"
        }
      ],
      "name": "MfgTrigger",
      "type": "event"
    },
    {
      "anonymous": false,
      "inputs": [
        {
          "indexed": false,
          "internalType": "string",
          "name": "orderno",
          "type": "string"
        }
      ],
      "name": "OrderGenerated",
      "type": "event"
    },
    {
      "anonymous": false,
      "inputs": [
        {
          "indexed": false,
          "internalType": "string",
          "name": "orderno",
          "type": "string"
        },
        {
          "indexed": false,
          "internalType": "uint256",
          "name": "category",
          "type": "uint256"
        },
        {
          "indexed": false,
          "internalType": "string",
          "name": "report",
          "type": "string"
        }
      ],
      "name": "ReportSubmit",
      "type": "event"
    },
    {
      "anonymous": false,
      "inputs": [
        {
          "indexed": false,
          "internalType": "string",
          "name": "orderno",
          "type": "string"
        }
      ],
      "name": "SupplyTrigger",
      "type": "event"
    },
    {
      "inputs": [
        {
          "internalType": "string",
          "name": "_partName",
          "type": "string"
        },
        {
          "internalType": "uint256",
          "name": "_quantity",
          "type": "uint256"
        },
        {
          "internalType": "string",
          "name": "_date",
          "type": "string"
        },
        {
          "internalType": "uint256",
          "name": "_price",
          "type": "uint256"
        },
        {
          "internalType": "string",
          "name": "_nameOfYourCompany",
          "type": "string"
        }
      ],
      "name": "A_manufactureRequest",
      "outputs": [
        {
          "internalType": "bytes32",
          "name": "",
          "type": "bytes32"
        }
      ],
      "stateMutability": "nonpayable",
      "type": "function"
    },
    {
      "inputs": [
        {
          "internalType": "bytes32",
          "name": "_manufactureRequestedHash",
          "type": "bytes32"
        }
      ],
      "name": "B_supplierResponse",
      "outputs": [
        {
          "internalType": "bytes32",
          "name": "",
          "type": "bytes32"
        }
      ],
      "stateMutability": "nonpayable",
      "type": "function"
    },
    {
      "inputs": [
        {
          "internalType": "address payable",
          "name": "_supplierAddress",
          "type": "address"
        }
      ],
      "name": "C_paymentToSupplierByManufacturer",
      "outputs": [],
      "stateMutability": "payable",
      "type": "function",
      "payable": true
    },
    {
      "inputs": [
        {
          "internalType": "address",
          "name": "_manufactureAddress",
          "type": "address"
        },
        {
          "internalType": "string",
          "name": "_productName",
          "type": "string"
        },
        {
          "internalType": "uint256",
          "name": "_productPrice",
          "type": "uint256"
        },
        {
          "internalType": "string",
          "name": "_date",
          "type": "string"
        },
        {
          "internalType": "uint256",
          "name": "_quantity",
          "type": "uint256"
        }
      ],
      "name": "D_creatingCar",
      "outputs": [
        {
          "internalType": "bytes32",
          "name": "",
          "type": "bytes32"
        }
      ],
      "stateMutability": "nonpayable",
      "type": "function"
    },
    {
      "inputs": [
        {
          "internalType": "string",
          "name": "_customerName",
          "type": "string"
        },
        {
          "internalType": "uint256",
          "name": "_customerQuantity",
          "type": "uint256"
        },
        {
          "internalType": "address payable",
          "name": "_payingToManufacturer",
          "type": "address"
        }
      ],
      "name": "E_shippedCarToCustomer",
      "outputs": [
        {
          "internalType": "bytes32",
          "name": "",
          "type": "bytes32"
        }
      ],
      "stateMutability": "payable",
      "type": "function",
      "payable": true
    },
    {
      "inputs": [
        {
          "internalType": "bytes32",
          "name": "_customerCreatedHash",
          "type": "bytes32"
        }
      ],
      "name": "F_getCustomerDetail",
      "outputs": [
        {
          "internalType": "string",
          "name": "customerName",
          "type": "string"
        },
        {
          "internalType": "uint256",
          "name": "customerQuantity",
          "type": "uint256"
        },
        {
          "internalType": "string",
          "name": "customerProductName",
          "type": "string"
        },
        {
          "internalType": "uint256",
          "name": "customerPrice",
          "type": "uint256"
        }
      ],
      "stateMutability": "view",
      "type": "function",
      "constant": true
    },
    {
      "inputs": [
        {
          "internalType": "bytes32",
          "name": "_manufacturerCreatedHash",
          "type": "bytes32"
        }
      ],
      "name": "G_getCarDetails",
      "outputs": [
        {
          "internalType": "string",
          "name": "manufacturerPartName",
          "type": "string"
        },
        {
          "internalType": "string",
          "name": "manufactureName",
          "type": "string"
        },
        {
          "internalType": "uint256",
          "name": "manufacturePrice",
          "type": "uint256"
        },
        {
          "internalType": "string",
          "name": "manufactureDate",
          "type": "string"
        },
        {
          "internalType": "uint256",
          "name": "manufactureQuantity",
          "type": "uint256"
        }
      ],
      "stateMutability": "view",
      "type": "function",
      "constant": true
    },
    {
      "inputs": [
        {
          "internalType": "bytes32",
          "name": "_supplierCreatedHash",
          "type": "bytes32"
        }
      ],
      "name": "H_getingSupplierDetails",
      "outputs": [
        {
          "internalType": "string",
          "name": "supplierName",
          "type": "string"
        },
        {
          "internalType": "string",
          "name": "supplierPartName",
          "type": "string"
        },
        {
          "internalType": "uint256",
          "name": "supplierQuantity",
          "type": "uint256"
        },
        {
          "internalType": "uint256",
          "name": "supplierPrice",
          "type": "uint256"
        },
        {
          "internalType": "string",
          "name": "supplierDate",
          "type": "string"
        }
      ],
      "stateMutability": "view",
      "type": "function",
      "constant": true
    },
    {
      "inputs": [
        {
          "internalType": "bytes32",
          "name": "_manufactureRequestCreatedHash",
          "type": "bytes32"
        }
      ],
      "name": "I_getManufactureRequest",
      "outputs": [
        {
          "internalType": "string",
          "name": "_partName",
          "type": "string"
        },
        {
          "internalType": "uint256",
          "name": "_quantity",
          "type": "uint256"
        },
        {
          "internalType": "string",
          "name": "_date",
          "type": "string"
        },
        {
          "internalType": "string",
          "name": "_nameOfCompany",
          "type": "string"
        }
      ],
      "stateMutability": "view",
      "type": "function",
      "constant": true
    },
    {
      "inputs": [
        {
          "internalType": "bytes32",
          "name": "_hash",
          "type": "bytes32"
        }
      ],
      "name": "J_ownerOfHash",
      "outputs": [
        {
          "internalType": "address",
          "name": "_ownerAddress",
          "type": "address"
        },
        {
          "internalType": "string",
          "name": "_ownerName",
          "type": "string"
        },
        {
          "internalType": "string",
          "name": "_productName",
          "type": "string"
        },
        {
          "internalType": "string",
          "name": "_productStatus",
          "type": "string"
        },
        {
          "internalType": "string",
          "name": "_paymentStatus",
          "type": "string"
        }
      ],
      "stateMutability": "view",
      "type": "function",
      "constant": true
    },
    {
      "inputs": [],
      "name": "K_manufacureBalance",
      "outputs": [
        {
          "internalType": "uint256",
          "name": "",
          "type": "uint256"
        }
      ],
      "stateMutability": "view",
      "type": "function",
      "constant": true
    }
  ],
  "bytecode": "0x60806040526000600360006101000a81548160ff02191690831515021790555034801561002b57600080fd5b50613a348061003b6000396000f3fe60806040526004361061009c5760003560e01c8063bae99b5b11610064578063bae99b5b146101d0578063c31f8e6114610211578063cfb453561461022d578063dc1f08721461026d578063fdc0f72d14610298578063fed58e46146102d55761009c565b8063055ce346146100a15780631837fd12146100e25780631f5281ab1461011f57806336e9be531461014f578063856c080e14610190575b600080fd5b3480156100ad57600080fd5b506100c860048036038101906100c39190612c41565b610312565b6040516100d9959493929190613302565b60405180910390f35b3480156100ee57600080fd5b5061010960048036038101906101049190612b9a565b610542565b60405161011691906132e7565b60405180910390f35b61013960048036038101906101349190612c6a565b610dab565b60405161014691906132e7565b60405180910390f35b34801561015b57600080fd5b5061017660048036038101906101719190612c41565b6111a3565b604051610187959493929190613278565b60405180910390f35b34801561019c57600080fd5b506101b760048036038101906101b29190612c41565b61147d565b6040516101c7949392919061342c565b60405180910390f35b3480156101dc57600080fd5b506101f760048036038101906101f29190612c41565b611606565b60405161020895949392919061336a565b60405180910390f35b61022b60048036038101906102269190612b71565b611835565b005b34801561023957600080fd5b50610254600480360381019061024f9190612c41565b611bc0565b60405161026494939291906133d2565b60405180910390f35b34801561027957600080fd5b50610282611dd3565b60405161028f91906136f2565b60405180910390f35b3480156102a457600080fd5b506102bf60048036038101906102ba9190612c41565b611df7565b6040516102cc91906132e7565b60405180910390f35b3480156102e157600080fd5b506102fc60048036038101906102f79190612cd1565b612545565b60405161030991906132e7565b60405180910390f35b60608060006060600060016000878152602001908152602001600020600b01600160008881526020019081526020016000206005016001600089815260200190815260200160002060080154600160008a8152602001908152602001600020600a01600160008b815260200190815260200160002060070154848054610397906138d2565b80601f01602080910402602001604051908101604052809291908181526020018280546103c3906138d2565b80156104105780601f106103e557610100808354040283529160200191610410565b820191906000526020600020905b8154815290600101906020018083116103f357829003601f168201915b50505050509450838054610423906138d2565b80601f016020809104026020016040519081016040528092919081815260200182805461044f906138d2565b801561049c5780601f106104715761010080835404028352916020019161049c565b820191906000526020600020905b81548152906001019060200180831161047f57829003601f168201915b505050505093508180546104af906138d2565b80601f01602080910402602001604051908101604052809291908181526020018280546104db906138d2565b80156105285780601f106104fd57610100808354040283529160200191610528565b820191906000526020600020905b81548152906001019060200180831161050b57829003601f168201915b505050505091509450945094509450945091939590929450565b6000600860009054906101000a900473ffffffffffffffffffffffffffffffffffffffff1673ffffffffffffffffffffffffffffffffffffffff168673ffffffffffffffffffffffffffffffffffffffff161461059e57600080fd5b600860009054906101000a900473ffffffffffffffffffffffffffffffffffffffff1673ffffffffffffffffffffffffffffffffffffffff163373ffffffffffffffffffffffffffffffffffffffff16146105f857600080fd5b60011515600360009054906101000a900460ff1615151461064e576040517f08c379a0000000000000000000000000000000000000000000000000000000008152600401610645906136b2565b60405180910390fd5b600080600080815260200190815260200160002060140154116106a6576040517f08c379a000000000000000000000000000000000000000000000000000000000815260040161069d90613672565b60405180910390fd5b6040518060400160405280600a81526020017f436172204672616d652000000000000000000000000000000000000000000000815250600080808152602001908152602001600020600b019080519060200190610704929190612985565b506040518060400160405280600b81526020017f43617220456e67696e652000000000000000000000000000000000000000000081525060008060018152602001908152602001600020600b019080519060200190610764929190612985565b506040518060400160405280600b81526020017f4361722048616e646c652000000000000000000000000000000000000000000081525060008060028152602001908152602001600020600b0190805190602001906107c4929190612985565b5060016000600454815260200190815260200160002060040160008060038152602001908152602001600020600b019080546107ff906138d2565b61080a929190612a0b565b506040518060400160405280600681526020017f4a616775617200000000000000000000000000000000000000000000000000008152506000808081526020019081526020016000206005019080519060200190610869929190612985565b50846000808081526020019081526020016000206009019080519060200190610893929190612985565b50670de0b6b3a7640000846108a891906137aa565b6000808081526020019081526020016000206008018190555082600080808152602001908152602001600020600a0190805190602001906108ea929190612985565b508160008080815260200190815260200160002060070181905550600080808152602001908152602001600020600b0160008060018152602001908152602001600020600b0160008060028152602001908152602001600020600b0160008060038152602001908152602001600020600b0160008080815260200190815260200160002060050160008080815260200190815260200160002060090160008080815260200190815260200160002060080154600080808152602001908152602001600020600a01600080808152602001908152602001600020600701546040516020016109df9998979695949392919061347f565b604051602081830303815290604052805190602001206005819055506000806000808152602001908152602001600020600b0160008060018152602001908152602001600020600b01604051602001610a39929190613249565b6040516020818303038152906040529050600080600060028152602001908152602001600020600b0160008060038152602001908152602001600020600b01604051602001610a89929190613249565b60405160208183030381529060405290508181604051602001610aad92919061321a565b604051602081830303815290604052600160006005548152602001908152602001600020600b019080519060200190610ae7929190612985565b506040518060400160405280600681526020017f4a616775617200000000000000000000000000000000000000000000000000008152506001600060055481526020019081526020016000206005019080519060200190610b49929190612985565b50866001600060055481526020019081526020016000206009019080519060200190610b76929190612985565b50670de0b6b3a764000086610b8b91906137aa565b6001600060055481526020019081526020016000206008018190555084600160006005548152602001908152602001600020600a019080519060200190610bd3929190612985565b5083600160006005548152602001908152602001600020600701819055503360026000600554815260200190815260200160002060000160006101000a81548173ffffffffffffffffffffffffffffffffffffffff021916908373ffffffffffffffffffffffffffffffffffffffff1602179055506040518060400160405280601281526020017f4a6167756172204d616e756163747572657200000000000000000000000000008152506002600060055481526020019081526020016000206001019080519060200190610ca9929190612985565b50866001600060055481526020019081526020016000206010019080519060200190610cd6929190612985565b506040518060400160405280600981526020017f436172204d6164656400000000000000000000000000000000000000000000008152506001600060055481526020019081526020016000206011019080519060200190610d38929190612985565b506040518060400160405280601681526020017f4e6f742059657420437573746f6d6572204f72646572000000000000000000008152506001600060055481526020019081526020016000206012019080519060200190610d9a929190612985565b506005549250505095945050505050565b60006001600060055481526020019081526020016000206008015483610dd191906137aa565b3414610e12576040517f08c379a0000000000000000000000000000000000000000000000000000000008152600401610e0990613692565b60405180910390fd5b8173ffffffffffffffffffffffffffffffffffffffff166108fc349081150290604051600060405180830381858888f19350505050158015610e58573d6000803e3d6000fd5b506040518060400160405280601081526020017f5061796d656e7420436f6d706c657465000000000000000000000000000000008152506001600060055481526020019081526020016000206012019080519060200190610eba929190612985565b506040518060400160405280601681526020017f2044656c69766572656420546f20437573746f6d6572000000000000000000008152506001600060055481526020019081526020016000206011019080519060200190610f1c929190612985565b508260016000600554815260200190815260200160002060070154610f419190613804565b6001600060055481526020019081526020016000206007018190555083600080808152602001908152602001600020600c019080519060200190610f86929190612985565b5082600080808152602001908152602001600020600d0181905550600080808152602001908152602001600020600c01600080808152602001908152602001600020600d0154604051602001610fdd9291906135ba565b6040516020818303038152906040528051906020012060068190555083600160006006548152602001908152602001600020600c019080519060200190611025929190612985565b5082600160006006548152602001908152602001600020600d0181905550600160006005548152602001908152602001600020600901600160006006548152602001908152602001600020600e0190805461107f906138d2565b61108a929190612a0b565b5082600160006005548152602001908152602001600020600801546110af91906137aa565b600160006006548152602001908152602001600020600f01819055503360026000600554815260200190815260200160002060000160006101000a81548173ffffffffffffffffffffffffffffffffffffffff021916908373ffffffffffffffffffffffffffffffffffffffff16021790555083600260006005548152602001908152602001600020600101908051906020019061114e929190612985565b5060016000600554815260200190815260200160002060090160016000600554815260200190815260200160002060100190805461118b906138d2565b611196929190612a0b565b5060065490509392505050565b60006060806060806002600087815260200190815260200160002060000160009054906101000a900473ffffffffffffffffffffffffffffffffffffffff166002600088815260200190815260200160002060010160016000898152602001908152602001600020601001600160008a8152602001908152602001600020601101600160008b8152602001908152602001600020601201838054611246906138d2565b80601f0160208091040260200160405190810160405280929190818152602001828054611272906138d2565b80156112bf5780601f10611294576101008083540402835291602001916112bf565b820191906000526020600020905b8154815290600101906020018083116112a257829003601f168201915b505050505093508280546112d2906138d2565b80601f01602080910402602001604051908101604052809291908181526020018280546112fe906138d2565b801561134b5780601f106113205761010080835404028352916020019161134b565b820191906000526020600020905b81548152906001019060200180831161132e57829003601f168201915b5050505050925081805461135e906138d2565b80601f016020809104026020016040519081016040528092919081815260200182805461138a906138d2565b80156113d75780601f106113ac576101008083540402835291602001916113d7565b820191906000526020600020905b8154815290600101906020018083116113ba57829003601f168201915b505050505091508080546113ea906138d2565b80601f0160208091040260200160405190810160405280929190818152602001828054611416906138d2565b80156114635780601f1061143857610100808354040283529160200191611463565b820191906000526020600020905b81548152906001019060200180831161144657829003601f168201915b505050505090509450945094509450945091939590929450565b606060006060600060016000868152602001908152602001600020600c0160016000878152602001908152602001600020600d015460016000888152602001908152602001600020600e0160016000898152602001908152602001600020600f01548380546114eb906138d2565b80601f0160208091040260200160405190810160405280929190818152602001828054611517906138d2565b80156115645780601f1061153957610100808354040283529160200191611564565b820191906000526020600020905b81548152906001019060200180831161154757829003601f168201915b50505050509350818054611577906138d2565b80601f01602080910402602001604051908101604052809291908181526020018280546115a3906138d2565b80156115f05780601f106115c5576101008083540402835291602001916115f0565b820191906000526020600020905b8154815290600101906020018083116115d357829003601f168201915b5050505050915093509350935093509193509193565b606080600080606060016000878152602001908152602001600020600001600160008881526020019081526020016000206004016001600089815260200190815260200160002060010154600160008a815260200190815260200160002060020154600160008b815260200190815260200160002060030184805461168a906138d2565b80601f01602080910402602001604051908101604052809291908181526020018280546116b6906138d2565b80156117035780601f106116d857610100808354040283529160200191611703565b820191906000526020600020905b8154815290600101906020018083116116e657829003601f168201915b50505050509450838054611716906138d2565b80601f0160208091040260200160405190810160405280929190818152602001828054611742906138d2565b801561178f5780601f106117645761010080835404028352916020019161178f565b820191906000526020600020905b81548152906001019060200180831161177257829003601f168201915b505050505093508080546117a2906138d2565b80601f01602080910402602001604051908101604052809291908181526020018280546117ce906138d2565b801561181b5780601f106117f05761010080835404028352916020019161181b565b820191906000526020600020905b8154815290600101906020018083116117fe57829003601f168201915b505050505090509450945094509450945091939590929450565b34600160006007548152602001908152602001600020601701541461188f576040517f08c379a0000000000000000000000000000000000000000000000000000000008152600401611886906136d2565b60405180910390fd5b60011515600360009054906101000a900460ff161515146118e5576040517f08c379a00000000000000000000000000000000000000000000000000000000081526004016118dc90613652565b60405180910390fd5b8073ffffffffffffffffffffffffffffffffffffffff166108fc349081150290604051600060405180830381858888f1935050505015801561192b573d6000803e3d6000fd5b506040518060400160405280601081526020017f5061796d656e7420436f6d706c65746500000000000000000000000000000000815250600160006004548152602001908152602001600020601201908051906020019061198d929190612985565b506040518060400160405280601a81526020017f2044656c69766572656420546f204d616e75666163747572657200000000000081525060016000600454815260200190815260200160002060110190805190602001906119ef929190612985565b506040518060400160405280601a81526020017f2044656c69766572656420546f204d616e7566616374757265720000000000008152506001600060075481526020019081526020016000206011019080519060200190611a51929190612985565b506040518060400160405280601181526020017f5061796d656e7420436f6d706c657465640000000000000000000000000000008152506001600060075481526020019081526020016000206012019080519060200190611ab3929190612985565b50600860009054906101000a900473ffffffffffffffffffffffffffffffffffffffff1660026000600454815260200190815260200160002060000160006101000a81548173ffffffffffffffffffffffffffffffffffffffff021916908373ffffffffffffffffffffffffffffffffffffffff160217905550600160006007548152602001908152602001600020601601600260006004548152602001908152602001600020600101908054611b69906138d2565b611b74929190612a0b565b50600160006004548152602001908152602001600020600401600160006004548152602001908152602001600020601001908054611bb1906138d2565b611bbc929190612a0b565b5050565b606060006060806001600086815260200190815260200160002060130160016000878152602001908152602001600020601401546001600088815260200190815260200160002060150160016000898152602001908152602001600020601601838054611c2c906138d2565b80601f0160208091040260200160405190810160405280929190818152602001828054611c58906138d2565b8015611ca55780601f10611c7a57610100808354040283529160200191611ca5565b820191906000526020600020905b815481529060010190602001808311611c8857829003601f168201915b50505050509350818054611cb8906138d2565b80601f0160208091040260200160405190810160405280929190818152602001828054611ce4906138d2565b8015611d315780601f10611d0657610100808354040283529160200191611d31565b820191906000526020600020905b815481529060010190602001808311611d1457829003601f168201915b50505050509150808054611d44906138d2565b80601f0160208091040260200160405190810160405280929190818152602001828054611d70906138d2565b8015611dbd5780601f10611d9257610100808354040283529160200191611dbd565b820191906000526020600020905b815481529060010190602001808311611da057829003601f168201915b5050505050905093509350935093509193509193565b6000803390508073ffffffffffffffffffffffffffffffffffffffff163191505090565b600080600160008481526020019081526020016000206013018054611e1b906138d2565b80601f0160208091040260200160405190810160405280929190818152602001828054611e47906138d2565b8015611e945780601f10611e6957610100808354040283529160200191611e94565b820191906000526020600020905b815481529060010190602001808311611e7757829003601f168201915b505050505090506000600160008581526020019081526020016000206014015490506000600160008681526020019081526020016000206015018054611ed9906138d2565b80601f0160208091040260200160405190810160405280929190818152602001828054611f05906138d2565b8015611f525780601f10611f2757610100808354040283529160200191611f52565b820191906000526020600020905b815481529060010190602001808311611f3557829003601f168201915b505050505090506000600160008781526020019081526020016000206016018054611f7c906138d2565b80601f0160208091040260200160405190810160405280929190818152602001828054611fa8906138d2565b8015611ff55780601f10611fca57610100808354040283529160200191611ff5565b820191906000526020600020905b815481529060010190602001808311611fd857829003601f168201915b505050505090506000670de0b6b3a7640000600160008981526020019081526020016000206017015461202891906137aa565b90506040518060400160405280600481526020017f54617461000000000000000000000000000000000000000000000000000000008152506000808081526020019081526020016000206000019080519060200190612088929190612985565b508460008080815260200190815260200160002060040190805190602001906120b2929190612985565b5083600080808152602001908152602001600020600101819055508260008080815260200190815260200160002060030190805190602001906120f6929190612985565b50806000808081526020019081526020016000206002018190555081600080808152602001908152602001600020601601908051906020019061213a929190612985565b5060008080815260200190815260200160002060000160008080815260200190815260200160002060040160008080815260200190815260200160002060010154600080808152602001908152602001600020600301600080808152602001908152602001600020600201546000808081526020019081526020016000206016016040516020016121d09695949392919061353d565b604051602081830303815290604052805190602001206004819055506040518060400160405280600581526020017f2054617461000000000000000000000000000000000000000000000000000000815250600160006004548152602001908152602001600020600001908051906020019061224d929190612985565b5084600160006004548152602001908152602001600020600401908051906020019061227a929190612985565b50836001600060045481526020019081526020016000206001018190555080600160006004548152602001908152602001600020600201819055508260016000600454815260200190815260200160002060030190805190602001906122e1929190612985565b5081600160006004548152602001908152602001600020601601908051906020019061230e929190612985565b506040518060400160405280601081526020017f41636365707465642026204d61646564000000000000000000000000000000008152506001600060075481526020019081526020016000206011019080519060200190612370929190612985565b506040518060400160405280601081526020017f41636365707465642026204d616465640000000000000000000000000000000081525060016000600454815260200190815260200160002060110190805190602001906123d2929190612985565b506040518060400160405280600781526020017f50656e64696e67000000000000000000000000000000000000000000000000008152506001600060045481526020019081526020016000206012019080519060200190612434929190612985565b506001600360006101000a81548160ff0219169083151502179055503360026000600454815260200190815260200160002060000160006101000a81548173ffffffffffffffffffffffffffffffffffffffff021916908373ffffffffffffffffffffffffffffffffffffffff1602179055506040518060400160405280600d81526020017f5461746120537570706c696572000000000000000000000000000000000000008152506002600060045481526020019081526020016000206001019080519060200190612508929190612985565b50846001600060045481526020019081526020016000206010019080519060200190612535929190612985565b5060045495505050505050919050565b600033600860006101000a81548173ffffffffffffffffffffffffffffffffffffffff021916908373ffffffffffffffffffffffffffffffffffffffff1602179055508560008080815260200190815260200160002060130190805190602001906125b1929190612985565b5084600080808152602001908152602001600020601401819055508360008080815260200190815260200160002060150190805190602001906125f5929190612985565b50670de0b6b3a76400008361260a91906137aa565b6000808081526020019081526020016000206017018190555081600080808152602001908152602001600020601601908051906020019061264c929190612985565b5060008080815260200190815260200160002060130160008080815260200190815260200160002060140154600080808152602001908152602001600020601501600080808152602001908152602001600020601701546000808081526020019081526020016000206016016040516020016126cc9594939291906135ea565b60405160208183030381529060405280519060200120600781905550856001600060075481526020019081526020016000206013019080519060200190612714929190612985565b50846001600060075481526020019081526020016000206014018190555083600160006007548152602001908152602001600020601501908051906020019061275e929190612985565b50670de0b6b3a76400008361277391906137aa565b600160006007548152602001908152602001600020601701819055508160016000600754815260200190815260200160002060160190805190602001906127bb929190612985565b506040518060400160405280601581526020017f4e6f742041636365707465642054696c6c204e6f770000000000000000000000815250600160006007548152602001908152602001600020601101908051906020019061281d929190612985565b506040518060400160405280600781526020017f50656e64696e6700000000000000000000000000000000000000000000000000815250600160006007548152602001908152602001600020601201908051906020019061287f929190612985565b5060008260405160200161289391906131ed565b604051602081830303815290604052905080876040516020016128b79291906131be565b60405160208183030381529060405260016000600754815260200190815260200160002060100190805190602001906128f1929190612985565b503360026000600754815260200190815260200160002060000160006101000a81548173ffffffffffffffffffffffffffffffffffffffff021916908373ffffffffffffffffffffffffffffffffffffffff160217905550826002600060075481526020019081526020016000206001019080519060200190612975929190612985565b5060075491505095945050505050565b828054612991906138d2565b90600052602060002090601f0160209004810192826129b357600085556129fa565b82601f106129cc57805160ff19168380011785556129fa565b828001600101855582156129fa579182015b828111156129f95782518255916020019190600101906129de565b5b509050612a079190612a98565b5090565b828054612a17906138d2565b90600052602060002090601f016020900481019282612a395760008555612a87565b82601f10612a4a5780548555612a87565b82800160010185558215612a8757600052602060002091601f016020900482015b82811115612a86578254825591600101919060010190612a6b565b5b509050612a949190612a98565b5090565b5b80821115612ab1576000816000905550600101612a99565b5090565b6000612ac8612ac38461373e565b61370d565b905082815260208101848484011115612ae057600080fd5b612aeb848285613890565b509392505050565b600081359050612b02816139a2565b92915050565b600081359050612b17816139b9565b92915050565b600081359050612b2c816139d0565b92915050565b600082601f830112612b4357600080fd5b8135612b53848260208601612ab5565b91505092915050565b600081359050612b6b816139e7565b92915050565b600060208284031215612b8357600080fd5b6000612b9184828501612b08565b91505092915050565b600080600080600060a08688031215612bb257600080fd5b6000612bc088828901612af3565b955050602086013567ffffffffffffffff811115612bdd57600080fd5b612be988828901612b32565b9450506040612bfa88828901612b5c565b935050606086013567ffffffffffffffff811115612c1757600080fd5b612c2388828901612b32565b9250506080612c3488828901612b5c565b9150509295509295909350565b600060208284031215612c5357600080fd5b6000612c6184828501612b1d565b91505092915050565b600080600060608486031215612c7f57600080fd5b600084013567ffffffffffffffff811115612c9957600080fd5b612ca586828701612b32565b9350506020612cb686828701612b5c565b9250506040612cc786828701612b08565b9150509250925092565b600080600080600060a08688031215612ce957600080fd5b600086013567ffffffffffffffff811115612d0357600080fd5b612d0f88828901612b32565b9550506020612d2088828901612b5c565b945050604086013567ffffffffffffffff811115612d3d57600080fd5b612d4988828901612b32565b9350506060612d5a88828901612b5c565b925050608086013567ffffffffffffffff811115612d7757600080fd5b612d8388828901612b32565b9150509295509295909350565b612d9981613838565b82525050565b612da88161385c565b82525050565b6000612db982613783565b612dc3818561378e565b9350612dd381856020860161389f565b612ddc81613991565b840191505092915050565b6000612df282613783565b612dfc818561379f565b9350612e0c81856020860161389f565b80840191505092915050565b60008154612e25816138d2565b612e2f818661378e565b94506001821660008114612e4a5760018114612e5c57612e8f565b60ff1983168652602086019350612e8f565b612e658561376e565b60005b83811015612e8757815481890152600182019150602081019050612e68565b808801955050505b50505092915050565b60008154612ea5816138d2565b612eaf818661379f565b94506001821660008114612eca5760018114612edb57612f0e565b60ff19831686528186019350612f0e565b612ee48561376e565b60005b83811015612f0657815481890152600182019150602081019050612ee7565b838801955050505b50505092915050565b6000612f2460128361379f565b91507f52657175657374656420466f72205061727400000000000000000000000000006000830152601282019050919050565b6000612f64601a8361378e565b91507f537570706c6965722050617274204973204e6f74204d616465640000000000006000830152602082019050919050565b6000612fa460018361379f565b91507f20000000000000000000000000000000000000000000000000000000000000006000830152600182019050919050565b6000612fe460278361378e565b91507f456e74657220416c6c205265717569726564204669656c6420496e204d616e7560008301527f66616374757265000000000000000000000000000000000000000000000000006020830152604082019050919050565b600061304a60448361378e565b91507f204d616e756661637475726520416e6420437573746f6d65722050726963652060008301527f4e6f74204d61746368696e6720446570656e64696e672055706f6e205175616e60208301527f74697479000000000000000000000000000000000000000000000000000000006040830152606082019050919050565b60006130d660218361378e565b91507f576974686f757420416c6c205061727473204361722043616e6e6f74204d616460008301527f65000000000000000000000000000000000000000000000000000000000000006020830152604082019050919050565b600061313c60008361379f565b9150600082019050919050565b600061315660328361378e565b91507f204f646572696e672054696d6520507269636520416e642043757272656e742060008301527f5072696365204e6f74204d61746368696e6700000000000000000000000000006020830152604082019050919050565b6131b881613886565b82525050565b60006131ca8285612de7565b91506131d582612f97565b91506131e18284612de7565b91508190509392505050565b60006131f98284612de7565b915061320482612f97565b915061320f82612f17565b915081905092915050565b60006132268285612de7565b91506132318261312f565b915061323d8284612de7565b91508190509392505050565b60006132558285612e98565b915061326082612f97565b915061326c8284612e98565b91508190509392505050565b600060a08201905061328d6000830188612d90565b818103602083015261329f8187612dae565b905081810360408301526132b38186612dae565b905081810360608301526132c78185612dae565b905081810360808301526132db8184612dae565b90509695505050505050565b60006020820190506132fc6000830184612d9f565b92915050565b600060a082019050818103600083015261331c8188612dae565b905081810360208301526133308187612dae565b905061333f60408301866131af565b81810360608301526133518185612dae565b905061336060808301846131af565b9695505050505050565b600060a08201905081810360008301526133848188612dae565b905081810360208301526133988187612dae565b90506133a760408301866131af565b6133b460608301856131af565b81810360808301526133c68184612dae565b90509695505050505050565b600060808201905081810360008301526133ec8187612dae565b90506133fb60208301866131af565b818103604083015261340d8185612dae565b905081810360608301526134218184612dae565b905095945050505050565b600060808201905081810360008301526134468187612dae565b905061345560208301866131af565b81810360408301526134678185612dae565b905061347660608301846131af565b95945050505050565b600061012082019050818103600083015261349a818c612e18565b905081810360208301526134ae818b612e18565b905081810360408301526134c2818a612e18565b905081810360608301526134d68189612e18565b905081810360808301526134ea8188612e18565b905081810360a08301526134fe8187612e18565b905061350d60c08301866131af565b81810360e083015261351f8185612e18565b905061352f6101008301846131af565b9a9950505050505050505050565b600060c08201905081810360008301526135578189612e18565b9050818103602083015261356b8188612e18565b905061357a60408301876131af565b818103606083015261358c8186612e18565b905061359b60808301856131af565b81810360a08301526135ad8184612e18565b9050979650505050505050565b600060408201905081810360008301526135d48185612e18565b90506135e360208301846131af565b9392505050565b600060a08201905081810360008301526136048188612e18565b905061361360208301876131af565b81810360408301526136258186612e18565b905061363460608301856131af565b81810360808301526136468184612e18565b90509695505050505050565b6000602082019050818103600083015261366b81612f57565b9050919050565b6000602082019050818103600083015261368b81612fd7565b9050919050565b600060208201905081810360008301526136ab8161303d565b9050919050565b600060208201905081810360008301526136cb816130c9565b9050919050565b600060208201905081810360008301526136eb81613149565b9050919050565b600060208201905061370760008301846131af565b92915050565b6000604051905081810181811067ffffffffffffffff8211171561373457613733613962565b5b8060405250919050565b600067ffffffffffffffff82111561375957613758613962565b5b601f19601f8301169050602081019050919050565b60008190508160005260206000209050919050565b600081519050919050565b600082825260208201905092915050565b600081905092915050565b60006137b582613886565b91506137c083613886565b9250817fffffffffffffffffffffffffffffffffffffffffffffffffffffffffffffffff04831182151516156137f9576137f8613904565b5b828202905092915050565b600061380f82613886565b915061381a83613886565b92508282101561382d5761382c613904565b5b828203905092915050565b600061384382613866565b9050919050565b600061385582613866565b9050919050565b6000819050919050565b600073ffffffffffffffffffffffffffffffffffffffff82169050919050565b6000819050919050565b82818337600083830152505050565b60005b838110156138bd5780820151818401526020810190506138a2565b838111156138cc576000848401525b50505050565b600060028204905060018216806138ea57607f821691505b602082108114156138fe576138fd613933565b5b50919050565b7f4e487b7100000000000000000000000000000000000000000000000000000000600052601160045260246000fd5b7f4e487b7100000000000000000000000000000000000000000000000000000000600052602260045260246000fd5b7f4e487b7100000000000000000000000000000000000000000000000000000000600052604160045260246000fd5b6000601f19601f8301169050919050565b6139ab81613838565b81146139b657600080fd5b50565b6139c28161384a565b81146139cd57600080fd5b50565b6139d98161385c565b81146139e457600080fd5b50565b6139f081613886565b81146139fb57600080fd5b5056fea264697066735822122065e37791adf8fbe254876a10bd3af7065cd943c88804d08e9cc289fb2f11c3ca64736f6c63430008000033",
  "immutableReferences": {},
  "source": "// SPDX-License-Identifier: MIT\n\npragma solidity ^0.8.0;\n\ncontract supplyChain{\n  struct Order {\n    string supplierName;\n    uint supplierQuantity;\n    uint supplierPrice;\n    string supplierDate;\n    string supplierPartName;\n\n\n    string manufactureName;\n    uint manufactureReuiredPartQuantity;\n    uint manufactureQuantity;\n    uint manufacturePrice;\n    string manufactureProductName;\n    string manufactureDate;\n    string manufacturerPartName;\n\n\n    string customerName;\n    uint customerQuantity;\n    string customerProductName;\n    uint customerPrice;\n\n    // string owner;\n    string productName;\n    string productStatus;\n    string paymentStatus;\n\n    //for manufacture request\n      string  partName ;\n      uint quantity ;\n      string  date ;\n      string nameOfYourCompany;\n      uint256 price;\n\n\n  }\n  struct Owner{\n    address ownerAddress;\n    string ownerName;\n  }\n\n  mapping(uint=>Order) registry; //saving data like array\n  mapping(bytes32=>Order) details;// saving data like unique hash form\n  mapping(bytes32=>Owner) owner;\n\n  bool requiredParts=false;\n  bytes32 supplierCreatedHash;\n  bytes32 manufacturerCreatedHash;\n  bytes32 customerCreatedHash;\n  bytes32 manufactureRequestCreatedHash;\n\n  address manufactureAddress;\n  address supplierAddress;\n  address customerAddress;\n\n  event OrderGenerated(string orderno);\n  event MfgTrigger(string orderno);\n  event SupplyTrigger(string orderno);\n  event ReportSubmit(string orderno, uint category, string report);\n\n\nfunction A_manufactureRequest(string memory _partName , uint _quantity , string memory _date , uint _price , string memory _nameOfYourCompany)  public returns(bytes32){\n  //setting owner\n  manufactureAddress =msg.sender;\n  //saving data\n  registry[0].partName = _partName;\n  registry[0].quantity = _quantity;\n  registry[0].date = _date;\n  registry[0].price = _price*10**18;\n  registry[0].nameOfYourCompany=_nameOfYourCompany;\n   //creating hash\n      manufactureRequestCreatedHash = keccak256(abi.encode(\n                                                           registry[0].partName ,\n                                                           registry[0].quantity ,\n                                                           registry[0].date ,\n                                                           registry[0].price ,\n                                                           registry[0].nameOfYourCompany\n                                                          )\n                                               );\n  // saving data on hash\n  details[manufactureRequestCreatedHash].partName = _partName;\n  details[manufactureRequestCreatedHash].quantity = _quantity;\n  details[manufactureRequestCreatedHash].date = _date;\n  details[manufactureRequestCreatedHash].price = _price*10**18;\n  details[manufactureRequestCreatedHash].nameOfYourCompany=_nameOfYourCompany;\n  details[manufactureRequestCreatedHash].productStatus = \"Not Accepted Till Now\";\n  details[manufactureRequestCreatedHash].paymentStatus = \"Pending\";\n  //saving data for hash detail function\n  string memory a = string(abi.encodePacked(_nameOfYourCompany,' ','Requested For Part'));\n  details[manufactureRequestCreatedHash].productName=string(abi.encodePacked(a,' ',_partName));\n  owner[manufactureRequestCreatedHash].ownerAddress = msg.sender;\n  owner[manufactureRequestCreatedHash].ownerName = _nameOfYourCompany;\n return manufactureRequestCreatedHash;\n}\n\n\n  function B_supplierResponse(bytes32 _manufactureRequestedHash) public returns(bytes32){\n  //for balance\n    string memory _partName = details[_manufactureRequestedHash].partName ;\n   uint _quantity = details[_manufactureRequestedHash].quantity;\n  string memory _date= details[_manufactureRequestedHash].date ;\n  string memory _nameOfYourCompany = details[_manufactureRequestedHash].nameOfYourCompany;\n  uint _price = details[_manufactureRequestedHash].price*10**18;\n     //saving supplier data\n      registry[0].supplierName = 'Tata';\n      registry[0].supplierPartName = _partName;\n      registry[0].supplierQuantity =_quantity;\n      registry[0].supplierDate = _date;\n      registry[0].supplierPrice = _price;\n      registry[0].nameOfYourCompany = _nameOfYourCompany;\n      //creating hash\n      supplierCreatedHash = keccak256(abi.encode(\n                           registry[0].supplierName,\n                           registry[0].supplierPartName ,\n                           registry[0].supplierQuantity ,\n                           registry[0].supplierDate,\n                           registry[0].supplierPrice,\n                           registry[0].nameOfYourCompany\n                          )\n               );\n\n     // saving data to 32bytes mapping to get all details\n      details[supplierCreatedHash].supplierName = ' Tata';\n      details[supplierCreatedHash].supplierPartName = _partName;\n      details[supplierCreatedHash].supplierQuantity = _quantity;\n      details[supplierCreatedHash].supplierPrice = _price;\n      details[supplierCreatedHash].supplierDate = _date;\n      details[supplierCreatedHash].nameOfYourCompany = _nameOfYourCompany;\n      details[manufactureRequestCreatedHash].productStatus = \"Accepted & Maded\";\n      details[supplierCreatedHash].productStatus = \"Accepted & Maded\";\n      details[supplierCreatedHash].paymentStatus =\"Pending\";\n      requiredParts  = true; // setting required part so manufacture cant made product without parts\n      //setting part ownership to supplier\n      owner[supplierCreatedHash].ownerAddress = msg.sender;\n      owner[supplierCreatedHash].ownerName = 'Tata Supplier';\n      details[supplierCreatedHash].productName = _partName ;\n      return supplierCreatedHash;\n  }\n\n  function C_paymentToSupplierByManufacturer(address payable _supplierAddress)public payable{\n\n    require(details[manufactureRequestCreatedHash].price == msg.value,\" Odering Time Price And Current Price Not Matching\");\n    require(requiredParts == true,'Supplier Part Is Not Maded');\n    _supplierAddress.transfer(msg.value);\n    details[supplierCreatedHash].paymentStatus =\"Payment Complete\";\n    details[supplierCreatedHash].productStatus = \" Delivered To Manufacturer\";\n    details[manufactureRequestCreatedHash].productStatus = \" Delivered To Manufacturer\";\n    details[manufactureRequestCreatedHash].paymentStatus =\"Payment Completed\";\n      //transfering ownership supplier to manufacturer\n    owner[supplierCreatedHash].ownerAddress = manufactureAddress ;\n    owner[supplierCreatedHash].ownerName = details[manufactureRequestCreatedHash].nameOfYourCompany ;\n    details[supplierCreatedHash].productName = details[supplierCreatedHash].supplierPartName ;\n  }\n\n\n\n  function D_creatingCar(address _manufactureAddress , string memory _productName , uint _productPrice , string memory _date , uint _quantity) public returns(bytes32){\n    require(_manufactureAddress == manufactureAddress);\n    require(msg.sender==manufactureAddress);\n    require(requiredParts == true,'Without All Parts Car Cannot Made');\n    require(registry[0].quantity > 0,'Enter All Required Field In Manufacture');\n      //saving supplier data\n      registry[0].manufacturerPartName = 'Car Frame ';\n      registry[1].manufacturerPartName = 'Car Engine ';\n      registry[2].manufacturerPartName = 'Car Handle ';\n      registry[3].manufacturerPartName = details[supplierCreatedHash].supplierPartName;\n      registry[0].manufactureName = 'Jaguar';\n      registry[0].manufactureProductName = _productName;\n      registry[0].manufacturePrice = _productPrice*10**18;\n      registry[0].manufactureDate = _date;\n      registry[0].manufactureQuantity = _quantity;\n\n      //creating hash\n      manufacturerCreatedHash = keccak256(abi.encode(\n                                       registry[0].manufacturerPartName ,\n                                       registry[1].manufacturerPartName ,\n                                       registry[2].manufacturerPartName,\n                                       registry[3].manufacturerPartName,\n                                       registry[0].manufactureName,\n                                       registry[0].manufactureProductName,\n                                       registry[0].manufacturePrice ,\n                                       registry[0].manufactureDate,\n                                       registry[0].manufactureQuantity\n                          )\n               );\n\n     // saving data to 32bytes mapping to get all details\n      string memory a = string(abi.encodePacked(registry[0].manufacturerPartName,' ',registry[1].manufacturerPartName));\n      string memory b = string(abi.encodePacked(registry[2].manufacturerPartName,' ',registry[3].manufacturerPartName));\n      details[manufacturerCreatedHash].manufacturerPartName = string(abi.encodePacked(a,'',b));\n      details[manufacturerCreatedHash].manufactureName = 'Jaguar';\n      details[manufacturerCreatedHash].manufactureProductName = _productName;\n      details[manufacturerCreatedHash].manufacturePrice =_productPrice*10**18;\n      details[manufacturerCreatedHash].manufactureDate = _date;\n      details[manufacturerCreatedHash].manufactureQuantity = _quantity;\n      //setting carownership to manufacturer\n      owner[manufacturerCreatedHash].ownerAddress = msg.sender;\n      owner[manufacturerCreatedHash].ownerName = 'Jaguar Manuacturer';\n       details[manufacturerCreatedHash].productName =_productName ;\n       details[manufacturerCreatedHash].productStatus = \"Car Maded\" ;\n       details[manufacturerCreatedHash].paymentStatus = \"Not Yet Customer Order\" ;\n      return manufacturerCreatedHash;\n  \n  }\n\n  function E_shippedCarToCustomer(string memory _customerName , uint _customerQuantity , address payable _payingToManufacturer )public payable returns(bytes32){\n    // payment\n       require(msg.value == _customerQuantity*details[manufacturerCreatedHash].manufacturePrice,\" Manufacture And Customer Price Not Matching Depending Upon Quantity\");\n    _payingToManufacturer.transfer(msg.value);\n    details[manufacturerCreatedHash].paymentStatus =\"Payment Complete\";\n    details[manufacturerCreatedHash].productStatus = \" Delivered To Customer\";\n\n      details[manufacturerCreatedHash].manufactureQuantity = details[manufacturerCreatedHash].manufactureQuantity-_customerQuantity;\n      //saving supplier data\n    registry[0].customerName = _customerName;\n    registry[0].customerQuantity =_customerQuantity;\n    //creating hash\n      customerCreatedHash = keccak256(abi.encode(\n                                                     registry[0].customerName,\n                                                     registry[0].customerQuantity\n                                                    )\n                                         );\n      // saving data to 32bytes mapping to get all details\n        details[customerCreatedHash].customerName = _customerName;\n        details[customerCreatedHash].customerQuantity =_customerQuantity;         \n        details[customerCreatedHash].customerProductName = details[manufacturerCreatedHash].manufactureProductName ;\n         details[customerCreatedHash].customerPrice = details[manufacturerCreatedHash].manufacturePrice * _customerQuantity;                     \n      //transfering hash ownership manufacture to customer\n      owner[manufacturerCreatedHash].ownerAddress = msg.sender;\n      owner[manufacturerCreatedHash].ownerName = _customerName;\n      details[manufacturerCreatedHash].productName =details[manufacturerCreatedHash].manufactureProductName ;\n\n         return customerCreatedHash;\n  }\n\n  function F_getCustomerDetail(bytes32 _customerCreatedHash)view public returns(string memory customerName , uint customerQuantity , string memory customerProductName , uint customerPrice){\n    return (\n              details[_customerCreatedHash].customerName ,\n              details[_customerCreatedHash].customerQuantity ,\n               details[_customerCreatedHash].customerProductName ,\n               details[_customerCreatedHash].customerPrice\n             );\n  }\n\n  function G_getCarDetails(bytes32 _manufacturerCreatedHash) view public returns(string memory manufacturerPartName , string memory manufactureName ,uint manufacturePrice , string memory manufactureDate , uint manufactureQuantity )\n  {\n      return (\n              details[_manufacturerCreatedHash].manufacturerPartName ,\n              details[_manufacturerCreatedHash].manufactureName ,\n              details[_manufacturerCreatedHash].manufacturePrice ,\n             details[_manufacturerCreatedHash].manufactureDate ,\n               details[_manufacturerCreatedHash].manufactureQuantity\n             );\n             \n  }\n\n  function H_getingSupplierDetails(bytes32 _supplierCreatedHash)public view returns(string memory supplierName , string memory supplierPartName , uint supplierQuantity , uint supplierPrice , string memory supplierDate )\n  {\n      return (\n                details[_supplierCreatedHash].supplierName,\n                details[_supplierCreatedHash].supplierPartName ,\n                details[_supplierCreatedHash].supplierQuantity ,\n                details[_supplierCreatedHash].supplierPrice ,\n                details[_supplierCreatedHash].supplierDate \n      );\n  }\n\n  function I_getManufactureRequest(bytes32 _manufactureRequestCreatedHash)view public returns(string memory _partName , uint _quantity , string memory _date , string memory _nameOfCompany){\n    return(\n           details[_manufactureRequestCreatedHash].partName,\n           details[_manufactureRequestCreatedHash].quantity,\n           details[_manufactureRequestCreatedHash].date,\n           details[_manufactureRequestCreatedHash].nameOfYourCompany\n          );\n  }\n\n  function J_ownerOfHash(bytes32 _hash) view public returns(address _ownerAddress , string memory _ownerName , string memory _productName ,string memory _productStatus , string memory _paymentStatus ){\n    return(\n            owner[_hash].ownerAddress,\n            owner[_hash].ownerName,\n            details[_hash].productName,\n            details[_hash].productStatus,\n            details[_hash].paymentStatus\n          );\n  }\n  function K_manufacureBalance() public view returns(uint256) {\n  address owner1 =msg.sender;\n//  uint256 a = owner1.balance;\n//  a = a/10**18;\nreturn owner1.balance;\n  }\n\n}",
  "sourcePath": "/home/rajnishyadav/Downloads/BC/7SupplyChain/contracts/supplyChain.sol",
  "compiler": {
    "name": "solc",
    "version": "0.8.0+commit.c7dfd78e.Emscripten.clang"
  },
  "schemaVersion": "3.2.2-next.0",
  "updatedAt": "2022-06-30T11:39:02.672Z",
  "networkType": "ethereum",
  "devdoc": {
    "kind": "dev",
    "methods": {},
    "version": 1
  },
  "userdoc": {
    "kind": "user",
    "methods": {},
    "version": 1
  }
}