{
  "contractName": "supplyChain",
  "abi": [
    {
      "anonymous": false,
      "inputs": [
        {
          "indexed": false,
          "internalType": "string",
          "name": "orderno",
          "type": "string"
        }
      ],
      "name": "MfgTrigger",
      "type": "event"
    },
    {
      "anonymous": false,
      "inputs": [
        {
          "indexed": false,
          "internalType": "string",
          "name": "orderno",
          "type": "string"
        }
      ],
      "name": "OrderGenerated",
      "type": "event"
    },
    {
      "anonymous": false,
      "inputs": [
        {
          "indexed": false,
          "internalType": "string",
          "name": "orderno",
          "type": "string"
        },
        {
          "indexed": false,
          "internalType": "uint256",
          "name": "category",
          "type": "uint256"
        },
        {
          "indexed": false,
          "internalType": "string",
          "name": "report",
          "type": "string"
        }
      ],
      "name": "ReportSubmit",
      "type": "event"
    },
    {
      "anonymous": false,
      "inputs": [
        {
          "indexed": false,
          "internalType": "string",
          "name": "orderno",
          "type": "string"
        }
      ],
      "name": "SupplyTrigger",
      "type": "event"
    },
    {
      "inputs": [
        {
          "internalType": "string",
          "name": "_partName",
          "type": "string"
        },
        {
          "internalType": "uint256",
          "name": "_quantity",
          "type": "uint256"
        },
        {
          "internalType": "string",
          "name": "_date",
          "type": "string"
        },
        {
          "internalType": "uint256",
          "name": "_price",
          "type": "uint256"
        },
        {
          "internalType": "string",
          "name": "_nameOfYourCompany",
          "type": "string"
        }
      ],
      "name": "A_manufactureRequest",
      "outputs": [
        {
          "internalType": "bytes32",
          "name": "",
          "type": "bytes32"
        }
      ],
      "stateMutability": "nonpayable",
      "type": "function"
    },
    {
      "inputs": [
        {
          "internalType": "bytes32",
          "name": "_manufactureRequestedHash",
          "type": "bytes32"
        }
      ],
      "name": "B_supplierResponse",
      "outputs": [
        {
          "internalType": "bytes32",
          "name": "",
          "type": "bytes32"
        }
      ],
      "stateMutability": "nonpayable",
      "type": "function"
    },
    {
      "inputs": [
        {
          "internalType": "address payable",
          "name": "_supplierAddress",
          "type": "address"
        }
      ],
      "name": "C_paymentToSupplierByManufacturer",
      "outputs": [],
      "stateMutability": "payable",
      "type": "function",
      "payable": true
    },
    {
      "inputs": [
        {
          "internalType": "address",
          "name": "_manufactureAddress",
          "type": "address"
        },
        {
          "internalType": "string",
          "name": "_productName",
          "type": "string"
        },
        {
          "internalType": "uint256",
          "name": "_productPrice",
          "type": "uint256"
        },
        {
          "internalType": "string",
          "name": "_date",
          "type": "string"
        },
        {
          "internalType": "uint256",
          "name": "_quantity",
          "type": "uint256"
        }
      ],
      "name": "D_creatingCar",
      "outputs": [
        {
          "internalType": "bytes32",
          "name": "",
          "type": "bytes32"
        }
      ],
      "stateMutability": "nonpayable",
      "type": "function"
    },
    {
      "inputs": [
        {
          "internalType": "string",
          "name": "_customerName",
          "type": "string"
        },
        {
          "internalType": "uint256",
          "name": "_customerQuantity",
          "type": "uint256"
        },
        {
          "internalType": "address payable",
          "name": "_payingToManufacturer",
          "type": "address"
        }
      ],
      "name": "E_shippedCarToCustomer",
      "outputs": [
        {
          "internalType": "bytes32",
          "name": "",
          "type": "bytes32"
        }
      ],
      "stateMutability": "payable",
      "type": "function",
      "payable": true
    },
    {
      "inputs": [
        {
          "internalType": "bytes32",
          "name": "_customerCreatedHash",
          "type": "bytes32"
        }
      ],
      "name": "F_getCustomerDetail",
      "outputs": [
        {
          "internalType": "string",
          "name": "customerName",
          "type": "string"
        },
        {
          "internalType": "uint256",
          "name": "customerQuantity",
          "type": "uint256"
        },
        {
          "internalType": "string",
          "name": "customerProductName",
          "type": "string"
        },
        {
          "internalType": "uint256",
          "name": "customerPrice",
          "type": "uint256"
        }
      ],
      "stateMutability": "view",
      "type": "function",
      "constant": true
    },
    {
      "inputs": [
        {
          "internalType": "bytes32",
          "name": "_manufacturerCreatedHash",
          "type": "bytes32"
        }
      ],
      "name": "G_getCarDetails",
      "outputs": [
        {
          "internalType": "string",
          "name": "manufacturerPartName",
          "type": "string"
        },
        {
          "internalType": "string",
          "name": "manufactureName",
          "type": "string"
        },
        {
          "internalType": "uint256",
          "name": "manufacturePrice",
          "type": "uint256"
        },
        {
          "internalType": "string",
          "name": "manufactureDate",
          "type": "string"
        },
        {
          "internalType": "uint256",
          "name": "manufactureQuantity",
          "type": "uint256"
        }
      ],
      "stateMutability": "view",
      "type": "function",
      "constant": true
    },
    {
      "inputs": [
        {
          "internalType": "bytes32",
          "name": "_supplierCreatedHash",
          "type": "bytes32"
        }
      ],
      "name": "H_getingSupplierDetails",
      "outputs": [
        {
          "internalType": "string",
          "name": "supplierName",
          "type": "string"
        },
        {
          "internalType": "string",
          "name": "supplierPartName",
          "type": "string"
        },
        {
          "internalType": "uint256",
          "name": "supplierQuantity",
          "type": "uint256"
        },
        {
          "internalType": "uint256",
          "name": "supplierPrice",
          "type": "uint256"
        },
        {
          "internalType": "string",
          "name": "supplierDate",
          "type": "string"
        }
      ],
      "stateMutability": "view",
      "type": "function",
      "constant": true
    },
    {
      "inputs": [
        {
          "internalType": "bytes32",
          "name": "_manufactureRequestCreatedHash",
          "type": "bytes32"
        }
      ],
      "name": "I_getManufactureRequest",
      "outputs": [
        {
          "internalType": "string",
          "name": "_partName",
          "type": "string"
        },
        {
          "internalType": "uint256",
          "name": "_quantity",
          "type": "uint256"
        },
        {
          "internalType": "string",
          "name": "_date",
          "type": "string"
        },
        {
          "internalType": "string",
          "name": "_nameOfCompany",
          "type": "string"
        }
      ],
      "stateMutability": "view",
      "type": "function",
      "constant": true
    },
    {
      "inputs": [
        {
          "internalType": "bytes32",
          "name": "_hash",
          "type": "bytes32"
        }
      ],
      "name": "J_ownerOfHash",
      "outputs": [
        {
          "internalType": "address",
          "name": "_ownerAddress",
          "type": "address"
        },
        {
          "internalType": "string",
          "name": "_ownerName",
          "type": "string"
        },
        {
          "internalType": "string",
          "name": "_productName",
          "type": "string"
        },
        {
          "internalType": "string",
          "name": "_productStatus",
          "type": "string"
        },
        {
          "internalType": "string",
          "name": "_paymentStatus",
          "type": "string"
        }
      ],
      "stateMutability": "view",
      "type": "function",
      "constant": true
    }
  ],
  "bytecode": "0x60806040526000600360006101000a81548160ff02191690831515021790555034801561002b57600080fd5b506139ac8061003b6000396000f3fe6080604052600436106100915760003560e01c8063bae99b5b11610059578063bae99b5b146101c5578063c31f8e6114610206578063cfb4535614610222578063fdc0f72d14610262578063fed58e461461029f57610091565b8063055ce346146100965780631837fd12146100d75780631f5281ab1461011457806336e9be5314610144578063856c080e14610185575b600080fd5b3480156100a257600080fd5b506100bd60048036038101906100b89190612bd4565b6102dc565b6040516100ce959493929190613295565b60405180910390f35b3480156100e357600080fd5b506100fe60048036038101906100f99190612b2d565b61050c565b60405161010b919061327a565b60405180910390f35b61012e60048036038101906101299190612bfd565b610d75565b60405161013b919061327a565b60405180910390f35b34801561015057600080fd5b5061016b60048036038101906101669190612bd4565b61116d565b60405161017c95949392919061320b565b60405180910390f35b34801561019157600080fd5b506101ac60048036038101906101a79190612bd4565b611447565b6040516101bc94939291906133bf565b60405180910390f35b3480156101d157600080fd5b506101ec60048036038101906101e79190612bd4565b6115d0565b6040516101fd9594939291906132fd565b60405180910390f35b610220600480360381019061021b9190612b04565b6117ff565b005b34801561022e57600080fd5b5061024960048036038101906102449190612bd4565b611b8a565b6040516102599493929190613365565b60405180910390f35b34801561026e57600080fd5b5061028960048036038101906102849190612bd4565b611d9d565b604051610296919061327a565b60405180910390f35b3480156102ab57600080fd5b506102c660048036038101906102c19190612c64565b6124d8565b6040516102d3919061327a565b60405180910390f35b60608060006060600060016000878152602001908152602001600020600b01600160008881526020019081526020016000206005016001600089815260200190815260200160002060080154600160008a8152602001908152602001600020600a01600160008b8152602001908152602001600020600701548480546103619061384a565b80601f016020809104026020016040519081016040528092919081815260200182805461038d9061384a565b80156103da5780601f106103af576101008083540402835291602001916103da565b820191906000526020600020905b8154815290600101906020018083116103bd57829003601f168201915b505050505094508380546103ed9061384a565b80601f01602080910402602001604051908101604052809291908181526020018280546104199061384a565b80156104665780601f1061043b57610100808354040283529160200191610466565b820191906000526020600020905b81548152906001019060200180831161044957829003601f168201915b505050505093508180546104799061384a565b80601f01602080910402602001604051908101604052809291908181526020018280546104a59061384a565b80156104f25780601f106104c7576101008083540402835291602001916104f2565b820191906000526020600020905b8154815290600101906020018083116104d557829003601f168201915b505050505091509450945094509450945091939590929450565b6000600860009054906101000a900473ffffffffffffffffffffffffffffffffffffffff1673ffffffffffffffffffffffffffffffffffffffff168673ffffffffffffffffffffffffffffffffffffffff161461056857600080fd5b600860009054906101000a900473ffffffffffffffffffffffffffffffffffffffff1673ffffffffffffffffffffffffffffffffffffffff163373ffffffffffffffffffffffffffffffffffffffff16146105c257600080fd5b60011515600360009054906101000a900460ff16151514610618576040517f08c379a000000000000000000000000000000000000000000000000000000000815260040161060f90613645565b60405180910390fd5b60008060008081526020019081526020016000206014015411610670576040517f08c379a000000000000000000000000000000000000000000000000000000000815260040161066790613605565b60405180910390fd5b6040518060400160405280600a81526020017f436172204672616d652000000000000000000000000000000000000000000000815250600080808152602001908152602001600020600b0190805190602001906106ce929190612918565b506040518060400160405280600b81526020017f43617220456e67696e652000000000000000000000000000000000000000000081525060008060018152602001908152602001600020600b01908051906020019061072e929190612918565b506040518060400160405280600b81526020017f4361722048616e646c652000000000000000000000000000000000000000000081525060008060028152602001908152602001600020600b01908051906020019061078e929190612918565b5060016000600454815260200190815260200160002060040160008060038152602001908152602001600020600b019080546107c99061384a565b6107d492919061299e565b506040518060400160405280600681526020017f4a616775617200000000000000000000000000000000000000000000000000008152506000808081526020019081526020016000206005019080519060200190610833929190612918565b5084600080808152602001908152602001600020600901908051906020019061085d929190612918565b50670de0b6b3a7640000846108729190613722565b6000808081526020019081526020016000206008018190555082600080808152602001908152602001600020600a0190805190602001906108b4929190612918565b508160008080815260200190815260200160002060070181905550600080808152602001908152602001600020600b0160008060018152602001908152602001600020600b0160008060028152602001908152602001600020600b0160008060038152602001908152602001600020600b0160008080815260200190815260200160002060050160008080815260200190815260200160002060090160008080815260200190815260200160002060080154600080808152602001908152602001600020600a01600080808152602001908152602001600020600701546040516020016109a999989796959493929190613412565b604051602081830303815290604052805190602001206005819055506000806000808152602001908152602001600020600b0160008060018152602001908152602001600020600b01604051602001610a039291906131dc565b6040516020818303038152906040529050600080600060028152602001908152602001600020600b0160008060038152602001908152602001600020600b01604051602001610a539291906131dc565b60405160208183030381529060405290508181604051602001610a779291906131ad565b604051602081830303815290604052600160006005548152602001908152602001600020600b019080519060200190610ab1929190612918565b506040518060400160405280600681526020017f4a616775617200000000000000000000000000000000000000000000000000008152506001600060055481526020019081526020016000206005019080519060200190610b13929190612918565b50866001600060055481526020019081526020016000206009019080519060200190610b40929190612918565b50670de0b6b3a764000086610b559190613722565b6001600060055481526020019081526020016000206008018190555084600160006005548152602001908152602001600020600a019080519060200190610b9d929190612918565b5083600160006005548152602001908152602001600020600701819055503360026000600554815260200190815260200160002060000160006101000a81548173ffffffffffffffffffffffffffffffffffffffff021916908373ffffffffffffffffffffffffffffffffffffffff1602179055506040518060400160405280601281526020017f4a6167756172204d616e756163747572657200000000000000000000000000008152506002600060055481526020019081526020016000206001019080519060200190610c73929190612918565b50866001600060055481526020019081526020016000206010019080519060200190610ca0929190612918565b506040518060400160405280600981526020017f436172204d6164656400000000000000000000000000000000000000000000008152506001600060055481526020019081526020016000206011019080519060200190610d02929190612918565b506040518060400160405280601681526020017f4e6f742059657420437573746f6d6572204f72646572000000000000000000008152506001600060055481526020019081526020016000206012019080519060200190610d64929190612918565b506005549250505095945050505050565b60006001600060055481526020019081526020016000206008015483610d9b9190613722565b3414610ddc576040517f08c379a0000000000000000000000000000000000000000000000000000000008152600401610dd390613625565b60405180910390fd5b8173ffffffffffffffffffffffffffffffffffffffff166108fc349081150290604051600060405180830381858888f19350505050158015610e22573d6000803e3d6000fd5b506040518060400160405280601081526020017f5061796d656e7420436f6d706c657465000000000000000000000000000000008152506001600060055481526020019081526020016000206012019080519060200190610e84929190612918565b506040518060400160405280601681526020017f2044656c69766572656420546f20437573746f6d6572000000000000000000008152506001600060055481526020019081526020016000206011019080519060200190610ee6929190612918565b508260016000600554815260200190815260200160002060070154610f0b919061377c565b6001600060055481526020019081526020016000206007018190555083600080808152602001908152602001600020600c019080519060200190610f50929190612918565b5082600080808152602001908152602001600020600d0181905550600080808152602001908152602001600020600c01600080808152602001908152602001600020600d0154604051602001610fa792919061354d565b6040516020818303038152906040528051906020012060068190555083600160006006548152602001908152602001600020600c019080519060200190610fef929190612918565b5082600160006006548152602001908152602001600020600d0181905550600160006005548152602001908152602001600020600901600160006006548152602001908152602001600020600e019080546110499061384a565b61105492919061299e565b5082600160006005548152602001908152602001600020600801546110799190613722565b600160006006548152602001908152602001600020600f01819055503360026000600554815260200190815260200160002060000160006101000a81548173ffffffffffffffffffffffffffffffffffffffff021916908373ffffffffffffffffffffffffffffffffffffffff160217905550836002600060055481526020019081526020016000206001019080519060200190611118929190612918565b506001600060055481526020019081526020016000206009016001600060055481526020019081526020016000206010019080546111559061384a565b61116092919061299e565b5060065490509392505050565b60006060806060806002600087815260200190815260200160002060000160009054906101000a900473ffffffffffffffffffffffffffffffffffffffff166002600088815260200190815260200160002060010160016000898152602001908152602001600020601001600160008a8152602001908152602001600020601101600160008b81526020019081526020016000206012018380546112109061384a565b80601f016020809104026020016040519081016040528092919081815260200182805461123c9061384a565b80156112895780601f1061125e57610100808354040283529160200191611289565b820191906000526020600020905b81548152906001019060200180831161126c57829003601f168201915b5050505050935082805461129c9061384a565b80601f01602080910402602001604051908101604052809291908181526020018280546112c89061384a565b80156113155780601f106112ea57610100808354040283529160200191611315565b820191906000526020600020905b8154815290600101906020018083116112f857829003601f168201915b505050505092508180546113289061384a565b80601f01602080910402602001604051908101604052809291908181526020018280546113549061384a565b80156113a15780601f10611376576101008083540402835291602001916113a1565b820191906000526020600020905b81548152906001019060200180831161138457829003601f168201915b505050505091508080546113b49061384a565b80601f01602080910402602001604051908101604052809291908181526020018280546113e09061384a565b801561142d5780601f106114025761010080835404028352916020019161142d565b820191906000526020600020905b81548152906001019060200180831161141057829003601f168201915b505050505090509450945094509450945091939590929450565b606060006060600060016000868152602001908152602001600020600c0160016000878152602001908152602001600020600d015460016000888152602001908152602001600020600e0160016000898152602001908152602001600020600f01548380546114b59061384a565b80601f01602080910402602001604051908101604052809291908181526020018280546114e19061384a565b801561152e5780601f106115035761010080835404028352916020019161152e565b820191906000526020600020905b81548152906001019060200180831161151157829003601f168201915b505050505093508180546115419061384a565b80601f016020809104026020016040519081016040528092919081815260200182805461156d9061384a565b80156115ba5780601f1061158f576101008083540402835291602001916115ba565b820191906000526020600020905b81548152906001019060200180831161159d57829003601f168201915b5050505050915093509350935093509193509193565b606080600080606060016000878152602001908152602001600020600001600160008881526020019081526020016000206004016001600089815260200190815260200160002060010154600160008a815260200190815260200160002060020154600160008b81526020019081526020016000206003018480546116549061384a565b80601f01602080910402602001604051908101604052809291908181526020018280546116809061384a565b80156116cd5780601f106116a2576101008083540402835291602001916116cd565b820191906000526020600020905b8154815290600101906020018083116116b057829003601f168201915b505050505094508380546116e09061384a565b80601f016020809104026020016040519081016040528092919081815260200182805461170c9061384a565b80156117595780601f1061172e57610100808354040283529160200191611759565b820191906000526020600020905b81548152906001019060200180831161173c57829003601f168201915b5050505050935080805461176c9061384a565b80601f01602080910402602001604051908101604052809291908181526020018280546117989061384a565b80156117e55780601f106117ba576101008083540402835291602001916117e5565b820191906000526020600020905b8154815290600101906020018083116117c857829003601f168201915b505050505090509450945094509450945091939590929450565b600160006004548152602001908152602001600020600201543414611859576040517f08c379a000000000000000000000000000000000000000000000000000000000815260040161185090613665565b60405180910390fd5b60011515600360009054906101000a900460ff161515146118af576040517f08c379a00000000000000000000000000000000000000000000000000000000081526004016118a6906135e5565b60405180910390fd5b8073ffffffffffffffffffffffffffffffffffffffff166108fc349081150290604051600060405180830381858888f193505050501580156118f5573d6000803e3d6000fd5b506040518060400160405280601081526020017f5061796d656e7420436f6d706c657465000000000000000000000000000000008152506001600060045481526020019081526020016000206012019080519060200190611957929190612918565b506040518060400160405280601a81526020017f2044656c69766572656420546f204d616e75666163747572657200000000000081525060016000600454815260200190815260200160002060110190805190602001906119b9929190612918565b506040518060400160405280601a81526020017f2044656c69766572656420546f204d616e7566616374757265720000000000008152506001600060075481526020019081526020016000206011019080519060200190611a1b929190612918565b506040518060400160405280601181526020017f5061796d656e7420436f6d706c657465640000000000000000000000000000008152506001600060075481526020019081526020016000206012019080519060200190611a7d929190612918565b50600860009054906101000a900473ffffffffffffffffffffffffffffffffffffffff1660026000600454815260200190815260200160002060000160006101000a81548173ffffffffffffffffffffffffffffffffffffffff021916908373ffffffffffffffffffffffffffffffffffffffff160217905550600160006007548152602001908152602001600020601601600260006004548152602001908152602001600020600101908054611b339061384a565b611b3e92919061299e565b50600160006004548152602001908152602001600020600401600160006004548152602001908152602001600020601001908054611b7b9061384a565b611b8692919061299e565b5050565b606060006060806001600086815260200190815260200160002060130160016000878152602001908152602001600020601401546001600088815260200190815260200160002060150160016000898152602001908152602001600020601601838054611bf69061384a565b80601f0160208091040260200160405190810160405280929190818152602001828054611c229061384a565b8015611c6f5780601f10611c4457610100808354040283529160200191611c6f565b820191906000526020600020905b815481529060010190602001808311611c5257829003601f168201915b50505050509350818054611c829061384a565b80601f0160208091040260200160405190810160405280929190818152602001828054611cae9061384a565b8015611cfb5780601f10611cd057610100808354040283529160200191611cfb565b820191906000526020600020905b815481529060010190602001808311611cde57829003601f168201915b50505050509150808054611d0e9061384a565b80601f0160208091040260200160405190810160405280929190818152602001828054611d3a9061384a565b8015611d875780601f10611d5c57610100808354040283529160200191611d87565b820191906000526020600020905b815481529060010190602001808311611d6a57829003601f168201915b5050505050905093509350935093509193509193565b600080600160008481526020019081526020016000206013018054611dc19061384a565b80601f0160208091040260200160405190810160405280929190818152602001828054611ded9061384a565b8015611e3a5780601f10611e0f57610100808354040283529160200191611e3a565b820191906000526020600020905b815481529060010190602001808311611e1d57829003601f168201915b505050505090506000600160008581526020019081526020016000206014015490506000600160008681526020019081526020016000206015018054611e7f9061384a565b80601f0160208091040260200160405190810160405280929190818152602001828054611eab9061384a565b8015611ef85780601f10611ecd57610100808354040283529160200191611ef8565b820191906000526020600020905b815481529060010190602001808311611edb57829003601f168201915b505050505090506000600160008781526020019081526020016000206016018054611f229061384a565b80601f0160208091040260200160405190810160405280929190818152602001828054611f4e9061384a565b8015611f9b5780601f10611f7057610100808354040283529160200191611f9b565b820191906000526020600020905b815481529060010190602001808311611f7e57829003601f168201915b505050505090506000600160008881526020019081526020016000206017015490506040518060400160405280600481526020017f5461746100000000000000000000000000000000000000000000000000000000815250600080808152602001908152602001600020600001908051906020019061201b929190612918565b50846000808081526020019081526020016000206004019080519060200190612045929190612918565b508360008080815260200190815260200160002060010181905550826000808081526020019081526020016000206003019080519060200190612089929190612918565b5080600080808152602001908152602001600020600201819055508160008080815260200190815260200160002060160190805190602001906120cd929190612918565b506000808081526020019081526020016000206000016000808081526020019081526020016000206004016000808081526020019081526020016000206001015460008080815260200190815260200160002060030160008080815260200190815260200160002060020154600080808152602001908152602001600020601601604051602001612163969594939291906134d0565b604051602081830303815290604052805190602001206004819055506040518060400160405280600581526020017f205461746100000000000000000000000000000000000000000000000000000081525060016000600454815260200190815260200160002060000190805190602001906121e0929190612918565b5084600160006004548152602001908152602001600020600401908051906020019061220d929190612918565b5083600160006004548152602001908152602001600020600101819055508060016000600454815260200190815260200160002060020181905550826001600060045481526020019081526020016000206003019080519060200190612274929190612918565b508160016000600454815260200190815260200160002060160190805190602001906122a1929190612918565b506040518060400160405280601081526020017f41636365707465642026204d61646564000000000000000000000000000000008152506001600060075481526020019081526020016000206011019080519060200190612303929190612918565b506040518060400160405280601081526020017f41636365707465642026204d61646564000000000000000000000000000000008152506001600060045481526020019081526020016000206011019080519060200190612365929190612918565b506040518060400160405280600781526020017f50656e64696e670000000000000000000000000000000000000000000000000081525060016000600454815260200190815260200160002060120190805190602001906123c7929190612918565b506001600360006101000a81548160ff0219169083151502179055503360026000600454815260200190815260200160002060000160006101000a81548173ffffffffffffffffffffffffffffffffffffffff021916908373ffffffffffffffffffffffffffffffffffffffff1602179055506040518060400160405280600d81526020017f5461746120537570706c69657200000000000000000000000000000000000000815250600260006004548152602001908152602001600020600101908051906020019061249b929190612918565b508460016000600454815260200190815260200160002060100190805190602001906124c8929190612918565b5060045495505050505050919050565b600033600860006101000a81548173ffffffffffffffffffffffffffffffffffffffff021916908373ffffffffffffffffffffffffffffffffffffffff160217905550856000808081526020019081526020016000206013019080519060200190612544929190612918565b508460008080815260200190815260200160002060140181905550836000808081526020019081526020016000206015019080519060200190612588929190612918565b50670de0b6b3a76400008361259d9190613722565b600080808152602001908152602001600020601701819055508160008080815260200190815260200160002060160190805190602001906125df929190612918565b50600080808152602001908152602001600020601301600080808152602001908152602001600020601401546000808081526020019081526020016000206015016000808081526020019081526020016000206017015460008080815260200190815260200160002060160160405160200161265f95949392919061357d565b604051602081830303815290604052805190602001206007819055508560016000600754815260200190815260200160002060130190805190602001906126a7929190612918565b5084600160006007548152602001908152602001600020601401819055508360016000600754815260200190815260200160002060150190805190602001906126f1929190612918565b50670de0b6b3a7640000836127069190613722565b6001600060075481526020019081526020016000206017018190555081600160006007548152602001908152602001600020601601908051906020019061274e929190612918565b506040518060400160405280601581526020017f4e6f742041636365707465642054696c6c204e6f77000000000000000000000081525060016000600754815260200190815260200160002060110190805190602001906127b0929190612918565b506040518060400160405280600781526020017f50656e64696e67000000000000000000000000000000000000000000000000008152506001600060075481526020019081526020016000206012019080519060200190612812929190612918565b506000826040516020016128269190613180565b6040516020818303038152906040529050808760405160200161284a929190613151565b6040516020818303038152906040526001600060075481526020019081526020016000206010019080519060200190612884929190612918565b503360026000600754815260200190815260200160002060000160006101000a81548173ffffffffffffffffffffffffffffffffffffffff021916908373ffffffffffffffffffffffffffffffffffffffff160217905550826002600060075481526020019081526020016000206001019080519060200190612908929190612918565b5060075491505095945050505050565b8280546129249061384a565b90600052602060002090601f016020900481019282612946576000855561298d565b82601f1061295f57805160ff191683800117855561298d565b8280016001018555821561298d579182015b8281111561298c578251825591602001919060010190612971565b5b50905061299a9190612a2b565b5090565b8280546129aa9061384a565b90600052602060002090601f0160209004810192826129cc5760008555612a1a565b82601f106129dd5780548555612a1a565b82800160010185558215612a1a57600052602060002091601f016020900482015b82811115612a195782548255916001019190600101906129fe565b5b509050612a279190612a2b565b5090565b5b80821115612a44576000816000905550600101612a2c565b5090565b6000612a5b612a56846136b6565b613685565b905082815260208101848484011115612a7357600080fd5b612a7e848285613808565b509392505050565b600081359050612a958161391a565b92915050565b600081359050612aaa81613931565b92915050565b600081359050612abf81613948565b92915050565b600082601f830112612ad657600080fd5b8135612ae6848260208601612a48565b91505092915050565b600081359050612afe8161395f565b92915050565b600060208284031215612b1657600080fd5b6000612b2484828501612a9b565b91505092915050565b600080600080600060a08688031215612b4557600080fd5b6000612b5388828901612a86565b955050602086013567ffffffffffffffff811115612b7057600080fd5b612b7c88828901612ac5565b9450506040612b8d88828901612aef565b935050606086013567ffffffffffffffff811115612baa57600080fd5b612bb688828901612ac5565b9250506080612bc788828901612aef565b9150509295509295909350565b600060208284031215612be657600080fd5b6000612bf484828501612ab0565b91505092915050565b600080600060608486031215612c1257600080fd5b600084013567ffffffffffffffff811115612c2c57600080fd5b612c3886828701612ac5565b9350506020612c4986828701612aef565b9250506040612c5a86828701612a9b565b9150509250925092565b600080600080600060a08688031215612c7c57600080fd5b600086013567ffffffffffffffff811115612c9657600080fd5b612ca288828901612ac5565b9550506020612cb388828901612aef565b945050604086013567ffffffffffffffff811115612cd057600080fd5b612cdc88828901612ac5565b9350506060612ced88828901612aef565b925050608086013567ffffffffffffffff811115612d0a57600080fd5b612d1688828901612ac5565b9150509295509295909350565b612d2c816137b0565b82525050565b612d3b816137d4565b82525050565b6000612d4c826136fb565b612d568185613706565b9350612d66818560208601613817565b612d6f81613909565b840191505092915050565b6000612d85826136fb565b612d8f8185613717565b9350612d9f818560208601613817565b80840191505092915050565b60008154612db88161384a565b612dc28186613706565b94506001821660008114612ddd5760018114612def57612e22565b60ff1983168652602086019350612e22565b612df8856136e6565b60005b83811015612e1a57815481890152600182019150602081019050612dfb565b808801955050505b50505092915050565b60008154612e388161384a565b612e428186613717565b94506001821660008114612e5d5760018114612e6e57612ea1565b60ff19831686528186019350612ea1565b612e77856136e6565b60005b83811015612e9957815481890152600182019150602081019050612e7a565b838801955050505b50505092915050565b6000612eb7601283613717565b91507f52657175657374656420466f72205061727400000000000000000000000000006000830152601282019050919050565b6000612ef7601a83613706565b91507f537570706c6965722050617274204973204e6f74204d616465640000000000006000830152602082019050919050565b6000612f37600183613717565b91507f20000000000000000000000000000000000000000000000000000000000000006000830152600182019050919050565b6000612f77602783613706565b91507f456e74657220416c6c205265717569726564204669656c6420496e204d616e7560008301527f66616374757265000000000000000000000000000000000000000000000000006020830152604082019050919050565b6000612fdd604483613706565b91507f204d616e756661637475726520416e6420437573746f6d65722050726963652060008301527f4e6f74204d61746368696e6720446570656e64696e672055706f6e205175616e60208301527f74697479000000000000000000000000000000000000000000000000000000006040830152606082019050919050565b6000613069602183613706565b91507f576974686f757420416c6c205061727473204361722043616e6e6f74204d616460008301527f65000000000000000000000000000000000000000000000000000000000000006020830152604082019050919050565b60006130cf600083613717565b9150600082019050919050565b60006130e9603283613706565b91507f204f646572696e672054696d6520507269636520416e642043757272656e742060008301527f5072696365204e6f74204d61746368696e6700000000000000000000000000006020830152604082019050919050565b61314b816137fe565b82525050565b600061315d8285612d7a565b915061316882612f2a565b91506131748284612d7a565b91508190509392505050565b600061318c8284612d7a565b915061319782612f2a565b91506131a282612eaa565b915081905092915050565b60006131b98285612d7a565b91506131c4826130c2565b91506131d08284612d7a565b91508190509392505050565b60006131e88285612e2b565b91506131f382612f2a565b91506131ff8284612e2b565b91508190509392505050565b600060a0820190506132206000830188612d23565b81810360208301526132328187612d41565b905081810360408301526132468186612d41565b9050818103606083015261325a8185612d41565b9050818103608083015261326e8184612d41565b90509695505050505050565b600060208201905061328f6000830184612d32565b92915050565b600060a08201905081810360008301526132af8188612d41565b905081810360208301526132c38187612d41565b90506132d26040830186613142565b81810360608301526132e48185612d41565b90506132f36080830184613142565b9695505050505050565b600060a08201905081810360008301526133178188612d41565b9050818103602083015261332b8187612d41565b905061333a6040830186613142565b6133476060830185613142565b81810360808301526133598184612d41565b90509695505050505050565b6000608082019050818103600083015261337f8187612d41565b905061338e6020830186613142565b81810360408301526133a08185612d41565b905081810360608301526133b48184612d41565b905095945050505050565b600060808201905081810360008301526133d98187612d41565b90506133e86020830186613142565b81810360408301526133fa8185612d41565b90506134096060830184613142565b95945050505050565b600061012082019050818103600083015261342d818c612dab565b90508181036020830152613441818b612dab565b90508181036040830152613455818a612dab565b905081810360608301526134698189612dab565b9050818103608083015261347d8188612dab565b905081810360a08301526134918187612dab565b90506134a060c0830186613142565b81810360e08301526134b28185612dab565b90506134c2610100830184613142565b9a9950505050505050505050565b600060c08201905081810360008301526134ea8189612dab565b905081810360208301526134fe8188612dab565b905061350d6040830187613142565b818103606083015261351f8186612dab565b905061352e6080830185613142565b81810360a08301526135408184612dab565b9050979650505050505050565b600060408201905081810360008301526135678185612dab565b90506135766020830184613142565b9392505050565b600060a08201905081810360008301526135978188612dab565b90506135a66020830187613142565b81810360408301526135b88186612dab565b90506135c76060830185613142565b81810360808301526135d98184612dab565b90509695505050505050565b600060208201905081810360008301526135fe81612eea565b9050919050565b6000602082019050818103600083015261361e81612f6a565b9050919050565b6000602082019050818103600083015261363e81612fd0565b9050919050565b6000602082019050818103600083015261365e8161305c565b9050919050565b6000602082019050818103600083015261367e816130dc565b9050919050565b6000604051905081810181811067ffffffffffffffff821117156136ac576136ab6138da565b5b8060405250919050565b600067ffffffffffffffff8211156136d1576136d06138da565b5b601f19601f8301169050602081019050919050565b60008190508160005260206000209050919050565b600081519050919050565b600082825260208201905092915050565b600081905092915050565b600061372d826137fe565b9150613738836137fe565b9250817fffffffffffffffffffffffffffffffffffffffffffffffffffffffffffffffff04831182151516156137715761377061387c565b5b828202905092915050565b6000613787826137fe565b9150613792836137fe565b9250828210156137a5576137a461387c565b5b828203905092915050565b60006137bb826137de565b9050919050565b60006137cd826137de565b9050919050565b6000819050919050565b600073ffffffffffffffffffffffffffffffffffffffff82169050919050565b6000819050919050565b82818337600083830152505050565b60005b8381101561383557808201518184015260208101905061381a565b83811115613844576000848401525b50505050565b6000600282049050600182168061386257607f821691505b60208210811415613876576138756138ab565b5b50919050565b7f4e487b7100000000000000000000000000000000000000000000000000000000600052601160045260246000fd5b7f4e487b7100000000000000000000000000000000000000000000000000000000600052602260045260246000fd5b7f4e487b7100000000000000000000000000000000000000000000000000000000600052604160045260246000fd5b6000601f19601f8301169050919050565b613923816137b0565b811461392e57600080fd5b50565b61393a816137c2565b811461394557600080fd5b50565b613951816137d4565b811461395c57600080fd5b50565b613968816137fe565b811461397357600080fd5b5056fea2646970667358221220424f2f821798a19b0a2784310f1b4e45aa7e5981ac8f8d466e266591d577233064736f6c63430008000033",
  "immutableReferences": {},
  "source": "// SPDX-License-Identifier: MIT\n\npragma solidity ^0.8.0;\n\ncontract supplyChain{\n  struct Order {\n    string supplierName;\n    uint supplierQuantity;\n    uint supplierPrice;\n    string supplierDate;\n    string supplierPartName;\n\n\n    string manufactureName;\n    uint manufactureReuiredPartQuantity;\n    uint manufactureQuantity;\n    uint manufacturePrice;\n    string manufactureProductName;\n    string manufactureDate;\n    string manufacturerPartName;\n\n\n    string customerName;\n    uint customerQuantity;\n    string customerProductName;\n    uint customerPrice;\n\n    // string owner;\n    string productName;\n    string productStatus;\n    string paymentStatus;\n\n    //for manufacture request\n      string  partName ;\n      uint quantity ;\n      string  date ;\n      string nameOfYourCompany;\n      uint price;\n\n\n  }\n  struct Owner{\n    address ownerAddress;\n    string ownerName;\n  }\n\n  mapping(uint=>Order) registry; //saving data like array\n  mapping(bytes32=>Order) details;// saving data like unique hash form\n  mapping(bytes32=>Owner) owner;\n\n  bool requiredParts=false;\n  bytes32 supplierCreatedHash;\n  bytes32 manufacturerCreatedHash;\n  bytes32 customerCreatedHash;\n  bytes32 manufactureRequestCreatedHash;\n\n  address manufactureAddress;\n  address supplierAddress;\n  address customerAddress;\n\n  event OrderGenerated(string orderno);\n  event MfgTrigger(string orderno);\n  event SupplyTrigger(string orderno);\n  event ReportSubmit(string orderno, uint category, string report);\n\n\nfunction A_manufactureRequest(string memory _partName , uint _quantity , string memory _date , uint _price , string memory _nameOfYourCompany)  public returns(bytes32){\n  //setting owner\n  manufactureAddress =msg.sender;\n  //saving data\n  registry[0].partName = _partName;\n  registry[0].quantity = _quantity;\n  registry[0].date = _date;\n  registry[0].price = _price*10**18;\n  registry[0].nameOfYourCompany=_nameOfYourCompany;\n   //creating hash\n      manufactureRequestCreatedHash = keccak256(abi.encode(\n                                                           registry[0].partName ,\n                                                           registry[0].quantity ,\n                                                           registry[0].date ,\n                                                           registry[0].price ,\n                                                           registry[0].nameOfYourCompany\n                                                          )\n                                               );\n  // saving data on hash\n  details[manufactureRequestCreatedHash].partName = _partName;\n  details[manufactureRequestCreatedHash].quantity = _quantity;\n  details[manufactureRequestCreatedHash].date = _date;\n  details[manufactureRequestCreatedHash].price = _price*10**18;\n  details[manufactureRequestCreatedHash].nameOfYourCompany=_nameOfYourCompany;\n  details[manufactureRequestCreatedHash].productStatus = \"Not Accepted Till Now\";\n  details[manufactureRequestCreatedHash].paymentStatus = \"Pending\";\n  //saving data for hash detail function\n  string memory a = string(abi.encodePacked(_nameOfYourCompany,' ','Requested For Part'));\n  details[manufactureRequestCreatedHash].productName=string(abi.encodePacked(a,' ',_partName));\n  owner[manufactureRequestCreatedHash].ownerAddress = msg.sender;\n  owner[manufactureRequestCreatedHash].ownerName = _nameOfYourCompany;\n return manufactureRequestCreatedHash;\n}\n\n\n  function B_supplierResponse(bytes32 _manufactureRequestedHash) public returns(bytes32){\n  //for balance\n    string memory _partName = details[_manufactureRequestedHash].partName ;\n   uint _quantity = details[_manufactureRequestedHash].quantity;\n  string memory _date= details[_manufactureRequestedHash].date ;\n  string memory _nameOfYourCompany = details[_manufactureRequestedHash].nameOfYourCompany;\n  uint _price = details[_manufactureRequestedHash].price;\n     //saving supplier data\n      registry[0].supplierName = 'Tata';\n      registry[0].supplierPartName = _partName;\n      registry[0].supplierQuantity =_quantity;\n      registry[0].supplierDate = _date;\n      registry[0].supplierPrice = _price;\n      registry[0].nameOfYourCompany = _nameOfYourCompany;\n      //creating hash\n      supplierCreatedHash = keccak256(abi.encode(\n                           registry[0].supplierName,\n                           registry[0].supplierPartName ,\n                           registry[0].supplierQuantity ,\n                           registry[0].supplierDate,\n                           registry[0].supplierPrice,\n                           registry[0].nameOfYourCompany\n                          )\n               );\n\n     // saving data to 32bytes mapping to get all details\n      details[supplierCreatedHash].supplierName = ' Tata';\n      details[supplierCreatedHash].supplierPartName = _partName;\n      details[supplierCreatedHash].supplierQuantity = _quantity;\n      details[supplierCreatedHash].supplierPrice = _price;\n      details[supplierCreatedHash].supplierDate = _date;\n      details[supplierCreatedHash].nameOfYourCompany = _nameOfYourCompany;\n      details[manufactureRequestCreatedHash].productStatus = \"Accepted & Maded\";\n      details[supplierCreatedHash].productStatus = \"Accepted & Maded\";\n      details[supplierCreatedHash].paymentStatus =\"Pending\";\n      requiredParts  = true; // setting required part so manufacture cant made product without parts\n      //setting part ownership to supplier\n      owner[supplierCreatedHash].ownerAddress = msg.sender;\n      owner[supplierCreatedHash].ownerName = 'Tata Supplier';\n      details[supplierCreatedHash].productName = _partName ;\n      return supplierCreatedHash;\n  }\n\n  function C_paymentToSupplierByManufacturer(address payable _supplierAddress)public payable{\n\n    require(msg.value == details[supplierCreatedHash].supplierPrice,\" Odering Time Price And Current Price Not Matching\");\n    require(requiredParts == true,'Supplier Part Is Not Maded');\n    _supplierAddress.transfer(msg.value);\n    details[supplierCreatedHash].paymentStatus =\"Payment Complete\";\n    details[supplierCreatedHash].productStatus = \" Delivered To Manufacturer\";\n    details[manufactureRequestCreatedHash].productStatus = \" Delivered To Manufacturer\";\n    details[manufactureRequestCreatedHash].paymentStatus =\"Payment Completed\";\n      //transfering ownership supplier to manufacturer\n    owner[supplierCreatedHash].ownerAddress = manufactureAddress ;\n    owner[supplierCreatedHash].ownerName = details[manufactureRequestCreatedHash].nameOfYourCompany ;\n    details[supplierCreatedHash].productName = details[supplierCreatedHash].supplierPartName ;\n  }\n\n\n\n  function D_creatingCar(address _manufactureAddress , string memory _productName , uint _productPrice , string memory _date , uint _quantity) public returns(bytes32){\n    require(_manufactureAddress == manufactureAddress);\n    require(msg.sender==manufactureAddress);\n    require(requiredParts == true,'Without All Parts Car Cannot Made');\n    require(registry[0].quantity > 0,'Enter All Required Field In Manufacture');\n      //saving supplier data\n      registry[0].manufacturerPartName = 'Car Frame ';\n      registry[1].manufacturerPartName = 'Car Engine ';\n      registry[2].manufacturerPartName = 'Car Handle ';\n      registry[3].manufacturerPartName = details[supplierCreatedHash].supplierPartName;\n      registry[0].manufactureName = 'Jaguar';\n      registry[0].manufactureProductName = _productName;\n      registry[0].manufacturePrice = _productPrice*10**18;\n      registry[0].manufactureDate = _date;\n      registry[0].manufactureQuantity = _quantity;\n\n      //creating hash\n      manufacturerCreatedHash = keccak256(abi.encode(\n                                       registry[0].manufacturerPartName ,\n                                       registry[1].manufacturerPartName ,\n                                       registry[2].manufacturerPartName,\n                                       registry[3].manufacturerPartName,\n                                       registry[0].manufactureName,\n                                       registry[0].manufactureProductName,\n                                       registry[0].manufacturePrice ,\n                                       registry[0].manufactureDate,\n                                       registry[0].manufactureQuantity\n                          )\n               );\n\n     // saving data to 32bytes mapping to get all details\n      string memory a = string(abi.encodePacked(registry[0].manufacturerPartName,' ',registry[1].manufacturerPartName));\n      string memory b = string(abi.encodePacked(registry[2].manufacturerPartName,' ',registry[3].manufacturerPartName));\n      details[manufacturerCreatedHash].manufacturerPartName = string(abi.encodePacked(a,'',b));\n      details[manufacturerCreatedHash].manufactureName = 'Jaguar';\n      details[manufacturerCreatedHash].manufactureProductName = _productName;\n      details[manufacturerCreatedHash].manufacturePrice =_productPrice*10**18;\n      details[manufacturerCreatedHash].manufactureDate = _date;\n      details[manufacturerCreatedHash].manufactureQuantity = _quantity;\n      //setting carownership to manufacturer\n      owner[manufacturerCreatedHash].ownerAddress = msg.sender;\n      owner[manufacturerCreatedHash].ownerName = 'Jaguar Manuacturer';\n       details[manufacturerCreatedHash].productName =_productName ;\n       details[manufacturerCreatedHash].productStatus = \"Car Maded\" ;\n       details[manufacturerCreatedHash].paymentStatus = \"Not Yet Customer Order\" ;\n      return manufacturerCreatedHash;\n  \n  }\n\n  function E_shippedCarToCustomer(string memory _customerName , uint _customerQuantity , address payable _payingToManufacturer )public payable returns(bytes32){\n    // payment\n       require(msg.value == _customerQuantity*details[manufacturerCreatedHash].manufacturePrice,\" Manufacture And Customer Price Not Matching Depending Upon Quantity\");\n    _payingToManufacturer.transfer(msg.value);\n    details[manufacturerCreatedHash].paymentStatus =\"Payment Complete\";\n    details[manufacturerCreatedHash].productStatus = \" Delivered To Customer\";\n\n      details[manufacturerCreatedHash].manufactureQuantity = details[manufacturerCreatedHash].manufactureQuantity-_customerQuantity;\n      //saving supplier data\n    registry[0].customerName = _customerName;\n    registry[0].customerQuantity =_customerQuantity;\n    //creating hash\n      customerCreatedHash = keccak256(abi.encode(\n                                                     registry[0].customerName,\n                                                     registry[0].customerQuantity\n                                                    )\n                                         );\n      // saving data to 32bytes mapping to get all details\n        details[customerCreatedHash].customerName = _customerName;\n        details[customerCreatedHash].customerQuantity =_customerQuantity;         \n        details[customerCreatedHash].customerProductName = details[manufacturerCreatedHash].manufactureProductName ;\n         details[customerCreatedHash].customerPrice = details[manufacturerCreatedHash].manufacturePrice * _customerQuantity;                     \n      //transfering hash ownership manufacture to customer\n      owner[manufacturerCreatedHash].ownerAddress = msg.sender;\n      owner[manufacturerCreatedHash].ownerName = _customerName;\n      details[manufacturerCreatedHash].productName =details[manufacturerCreatedHash].manufactureProductName ;\n\n         return customerCreatedHash;\n  }\n\n  function F_getCustomerDetail(bytes32 _customerCreatedHash)view public returns(string memory customerName , uint customerQuantity , string memory customerProductName , uint customerPrice){\n    return (\n              details[_customerCreatedHash].customerName ,\n              details[_customerCreatedHash].customerQuantity ,\n               details[_customerCreatedHash].customerProductName ,\n               details[_customerCreatedHash].customerPrice\n             );\n  }\n\n  function G_getCarDetails(bytes32 _manufacturerCreatedHash) view public returns(string memory manufacturerPartName , string memory manufactureName ,uint manufacturePrice , string memory manufactureDate , uint manufactureQuantity )\n  {\n      return (\n              details[_manufacturerCreatedHash].manufacturerPartName ,\n              details[_manufacturerCreatedHash].manufactureName ,\n              details[_manufacturerCreatedHash].manufacturePrice ,\n             details[_manufacturerCreatedHash].manufactureDate ,\n               details[_manufacturerCreatedHash].manufactureQuantity\n             );\n             \n  }\n\n  function H_getingSupplierDetails(bytes32 _supplierCreatedHash)public view returns(string memory supplierName , string memory supplierPartName , uint supplierQuantity , uint supplierPrice , string memory supplierDate )\n  {\n      return (\n                details[_supplierCreatedHash].supplierName,\n                details[_supplierCreatedHash].supplierPartName ,\n                details[_supplierCreatedHash].supplierQuantity ,\n                details[_supplierCreatedHash].supplierPrice ,\n                details[_supplierCreatedHash].supplierDate \n      );\n  }\n\n  function I_getManufactureRequest(bytes32 _manufactureRequestCreatedHash)view public returns(string memory _partName , uint _quantity , string memory _date , string memory _nameOfCompany){\n    return(\n           details[_manufactureRequestCreatedHash].partName,\n           details[_manufactureRequestCreatedHash].quantity,\n           details[_manufactureRequestCreatedHash].date,\n           details[_manufactureRequestCreatedHash].nameOfYourCompany\n          );\n  }\n\n  function J_ownerOfHash(bytes32 _hash) view public returns(address _ownerAddress , string memory _ownerName , string memory _productName ,string memory _productStatus , string memory _paymentStatus ){\n    return(\n            owner[_hash].ownerAddress,\n            owner[_hash].ownerName,\n            details[_hash].productName,\n            details[_hash].productStatus,\n            details[_hash].paymentStatus\n          );\n  }\n\n}",
  "sourcePath": "/home/rajnishyadav/Downloads/BC/7SupplyChain/contracts/supplyChain.sol",
  "compiler": {
    "name": "solc",
    "version": "0.8.0+commit.c7dfd78e.Emscripten.clang"
  },
  "schemaVersion": "3.2.2-next.0",
  "updatedAt": "2022-06-27T05:10:39.653Z",
  "networkType": "ethereum",
  "devdoc": {
    "kind": "dev",
    "methods": {},
    "version": 1
  },
  "userdoc": {
    "kind": "user",
    "methods": {},
    "version": 1
  }
}