{
  "contractName": "supplyChain",
  "abi": [
    {
      "anonymous": false,
      "inputs": [
        {
          "indexed": false,
          "internalType": "string",
          "name": "orderno",
          "type": "string"
        }
      ],
      "name": "MfgTrigger",
      "type": "event"
    },
    {
      "anonymous": false,
      "inputs": [
        {
          "indexed": false,
          "internalType": "string",
          "name": "orderno",
          "type": "string"
        }
      ],
      "name": "OrderGenerated",
      "type": "event"
    },
    {
      "anonymous": false,
      "inputs": [
        {
          "indexed": false,
          "internalType": "string",
          "name": "orderno",
          "type": "string"
        },
        {
          "indexed": false,
          "internalType": "uint256",
          "name": "category",
          "type": "uint256"
        },
        {
          "indexed": false,
          "internalType": "string",
          "name": "report",
          "type": "string"
        }
      ],
      "name": "ReportSubmit",
      "type": "event"
    },
    {
      "anonymous": false,
      "inputs": [
        {
          "indexed": false,
          "internalType": "string",
          "name": "orderno",
          "type": "string"
        }
      ],
      "name": "SupplyTrigger",
      "type": "event"
    },
    {
      "inputs": [
        {
          "internalType": "string",
          "name": "_partName",
          "type": "string"
        },
        {
          "internalType": "uint256",
          "name": "_quantity",
          "type": "uint256"
        },
        {
          "internalType": "string",
          "name": "_date",
          "type": "string"
        },
        {
          "internalType": "uint256",
          "name": "_price",
          "type": "uint256"
        },
        {
          "internalType": "string",
          "name": "_nameOfYourCompany",
          "type": "string"
        }
      ],
      "name": "A_manufactureRequest",
      "outputs": [
        {
          "internalType": "bytes32",
          "name": "",
          "type": "bytes32"
        }
      ],
      "stateMutability": "nonpayable",
      "type": "function"
    },
    {
      "inputs": [
        {
          "internalType": "bytes32",
          "name": "_manufactureRequestedHash",
          "type": "bytes32"
        }
      ],
      "name": "B_supplierResponse",
      "outputs": [
        {
          "internalType": "bytes32",
          "name": "",
          "type": "bytes32"
        }
      ],
      "stateMutability": "nonpayable",
      "type": "function"
    },
    {
      "inputs": [
        {
          "internalType": "address payable",
          "name": "_supplierAddress",
          "type": "address"
        }
      ],
      "name": "C_paymentToSupplierByManufacturer",
      "outputs": [],
      "stateMutability": "payable",
      "type": "function",
      "payable": true
    },
    {
      "inputs": [
        {
          "internalType": "address",
          "name": "_manufactureAddress",
          "type": "address"
        },
        {
          "internalType": "string",
          "name": "_productName",
          "type": "string"
        },
        {
          "internalType": "uint256",
          "name": "_productPrice",
          "type": "uint256"
        },
        {
          "internalType": "string",
          "name": "_date",
          "type": "string"
        },
        {
          "internalType": "uint256",
          "name": "_quantity",
          "type": "uint256"
        }
      ],
      "name": "D_creatingCar",
      "outputs": [
        {
          "internalType": "bytes32",
          "name": "",
          "type": "bytes32"
        }
      ],
      "stateMutability": "nonpayable",
      "type": "function"
    },
    {
      "inputs": [
        {
          "internalType": "string",
          "name": "_customerName",
          "type": "string"
        },
        {
          "internalType": "uint256",
          "name": "_customerQuantity",
          "type": "uint256"
        },
        {
          "internalType": "address payable",
          "name": "_payingToManufacturer",
          "type": "address"
        },
        {
          "internalType": "uint256",
          "name": "_amoutPayingToManufacturer",
          "type": "uint256"
        }
      ],
      "name": "E_shippedCarToCustomer",
      "outputs": [
        {
          "internalType": "bytes32",
          "name": "",
          "type": "bytes32"
        }
      ],
      "stateMutability": "payable",
      "type": "function",
      "payable": true
    },
    {
      "inputs": [
        {
          "internalType": "bytes32",
          "name": "_customerCreatedHash",
          "type": "bytes32"
        }
      ],
      "name": "F_getCustomerDetail",
      "outputs": [
        {
          "internalType": "string",
          "name": "customerName",
          "type": "string"
        },
        {
          "internalType": "uint256",
          "name": "customerQuantity",
          "type": "uint256"
        },
        {
          "internalType": "string",
          "name": "customerProductName",
          "type": "string"
        },
        {
          "internalType": "uint256",
          "name": "customerPrice",
          "type": "uint256"
        }
      ],
      "stateMutability": "view",
      "type": "function",
      "constant": true
    },
    {
      "inputs": [
        {
          "internalType": "bytes32",
          "name": "_manufacturerCreatedHash",
          "type": "bytes32"
        }
      ],
      "name": "G_getCarDetails",
      "outputs": [
        {
          "internalType": "string",
          "name": "manufacturerPartName",
          "type": "string"
        },
        {
          "internalType": "string",
          "name": "manufactureName",
          "type": "string"
        },
        {
          "internalType": "uint256",
          "name": "manufacturePrice",
          "type": "uint256"
        },
        {
          "internalType": "string",
          "name": "manufactureDate",
          "type": "string"
        },
        {
          "internalType": "uint256",
          "name": "manufactureQuantity",
          "type": "uint256"
        }
      ],
      "stateMutability": "view",
      "type": "function",
      "constant": true
    },
    {
      "inputs": [
        {
          "internalType": "bytes32",
          "name": "_supplierCreatedHash",
          "type": "bytes32"
        }
      ],
      "name": "H_getingSupplierDetails",
      "outputs": [
        {
          "internalType": "string",
          "name": "supplierName",
          "type": "string"
        },
        {
          "internalType": "string",
          "name": "supplierPartName",
          "type": "string"
        },
        {
          "internalType": "uint256",
          "name": "supplierQuantity",
          "type": "uint256"
        },
        {
          "internalType": "uint256",
          "name": "supplierPrice",
          "type": "uint256"
        },
        {
          "internalType": "string",
          "name": "supplierDate",
          "type": "string"
        }
      ],
      "stateMutability": "view",
      "type": "function",
      "constant": true
    },
    {
      "inputs": [
        {
          "internalType": "bytes32",
          "name": "_manufactureRequestCreatedHash",
          "type": "bytes32"
        }
      ],
      "name": "I_getManufactureRequest",
      "outputs": [
        {
          "internalType": "string",
          "name": "_partName",
          "type": "string"
        },
        {
          "internalType": "uint256",
          "name": "_quantity",
          "type": "uint256"
        },
        {
          "internalType": "string",
          "name": "_date",
          "type": "string"
        },
        {
          "internalType": "string",
          "name": "_nameOfCompany",
          "type": "string"
        }
      ],
      "stateMutability": "view",
      "type": "function",
      "constant": true
    },
    {
      "inputs": [
        {
          "internalType": "bytes32",
          "name": "_hash",
          "type": "bytes32"
        }
      ],
      "name": "J_ownerOfHash",
      "outputs": [
        {
          "internalType": "address",
          "name": "_ownerAddress",
          "type": "address"
        },
        {
          "internalType": "string",
          "name": "_ownerName",
          "type": "string"
        },
        {
          "internalType": "string",
          "name": "_productName",
          "type": "string"
        },
        {
          "internalType": "string",
          "name": "_productStatus",
          "type": "string"
        },
        {
          "internalType": "string",
          "name": "_paymentStatus",
          "type": "string"
        }
      ],
      "stateMutability": "view",
      "type": "function",
      "constant": true
    }
  ],
  "bytecode": "0x60806040526000600360006101000a81548160ff02191690831515021790555034801561002b57600080fd5b5061394a8061003b6000396000f3fe6080604052600436106100915760003560e01c8063bae99b5b11610059578063bae99b5b146101c5578063c31f8e6114610206578063cfb4535614610222578063fdc0f72d14610262578063fed58e461461029f57610091565b8063055ce346146100965780631837fd12146100d757806336e9be5314610114578063391d8e7714610155578063856c080e14610185575b600080fd5b3480156100a257600080fd5b506100bd60048036038101906100b89190612b5e565b6102dc565b6040516100ce959493929190613233565b60405180910390f35b3480156100e357600080fd5b506100fe60048036038101906100f99190612ab7565b61050c565b60405161010b9190613218565b60405180910390f35b34801561012057600080fd5b5061013b60048036038101906101369190612b5e565b610cb1565b60405161014c9594939291906131a9565b60405180910390f35b61016f600480360381019061016a9190612b87565b610f8b565b60405161017c9190613218565b60405180910390f35b34801561019157600080fd5b506101ac60048036038101906101a79190612b5e565b6113d1565b6040516101bc949392919061335d565b60405180910390f35b3480156101d157600080fd5b506101ec60048036038101906101e79190612b5e565b61155a565b6040516101fd95949392919061329b565b60405180910390f35b610220600480360381019061021b9190612a8e565b611789565b005b34801561022e57600080fd5b5061024960048036038101906102449190612b5e565b611b14565b6040516102599493929190613303565b60405180910390f35b34801561026e57600080fd5b5061028960048036038101906102849190612b5e565b611d27565b6040516102969190613218565b60405180910390f35b3480156102ab57600080fd5b506102c660048036038101906102c19190612c02565b612462565b6040516102d39190613218565b60405180910390f35b60608060006060600060016000878152602001908152602001600020600b01600160008881526020019081526020016000206005016001600089815260200190815260200160002060080154600160008a8152602001908152602001600020600a01600160008b815260200190815260200160002060070154848054610361906137e8565b80601f016020809104026020016040519081016040528092919081815260200182805461038d906137e8565b80156103da5780601f106103af576101008083540402835291602001916103da565b820191906000526020600020905b8154815290600101906020018083116103bd57829003601f168201915b505050505094508380546103ed906137e8565b80601f0160208091040260200160405190810160405280929190818152602001828054610419906137e8565b80156104665780601f1061043b57610100808354040283529160200191610466565b820191906000526020600020905b81548152906001019060200180831161044957829003601f168201915b50505050509350818054610479906137e8565b80601f01602080910402602001604051908101604052809291908181526020018280546104a5906137e8565b80156104f25780601f106104c7576101008083540402835291602001916104f2565b820191906000526020600020905b8154815290600101906020018083116104d557829003601f168201915b505050505091509450945094509450945091939590929450565b6000600860009054906101000a900473ffffffffffffffffffffffffffffffffffffffff1673ffffffffffffffffffffffffffffffffffffffff168673ffffffffffffffffffffffffffffffffffffffff161461056857600080fd5b600860009054906101000a900473ffffffffffffffffffffffffffffffffffffffff1673ffffffffffffffffffffffffffffffffffffffff163373ffffffffffffffffffffffffffffffffffffffff16146105c257600080fd5b60011515600360009054906101000a900460ff16151514610618576040517f08c379a000000000000000000000000000000000000000000000000000000000815260040161060f906135e3565b60405180910390fd5b60008060008081526020019081526020016000206014015411610670576040517f08c379a0000000000000000000000000000000000000000000000000000000008152600401610667906135a3565b60405180910390fd5b6040518060400160405280600a81526020017f436172204672616d652000000000000000000000000000000000000000000000815250600080808152602001908152602001600020600b0190805190602001906106ce9291906128a2565b506040518060400160405280600b81526020017f43617220456e67696e652000000000000000000000000000000000000000000081525060008060018152602001908152602001600020600b01908051906020019061072e9291906128a2565b506040518060400160405280600b81526020017f4361722048616e646c652000000000000000000000000000000000000000000081525060008060028152602001908152602001600020600b01908051906020019061078e9291906128a2565b5060016000600454815260200190815260200160002060040160008060038152602001908152602001600020600b019080546107c9906137e8565b6107d4929190612928565b506040518060400160405280600681526020017f4a6167756172000000000000000000000000000000000000000000000000000081525060008080815260200190815260200160002060050190805190602001906108339291906128a2565b5084600080808152602001908152602001600020600901908051906020019061085d9291906128a2565b50670de0b6b3a76400008461087291906136c0565b6000808081526020019081526020016000206008018190555082600080808152602001908152602001600020600a0190805190602001906108b49291906128a2565b508160008080815260200190815260200160002060070181905550600080808152602001908152602001600020600b0160008060018152602001908152602001600020600b0160008060028152602001908152602001600020600b0160008060038152602001908152602001600020600b0160008080815260200190815260200160002060050160008080815260200190815260200160002060090160008080815260200190815260200160002060080154600080808152602001908152602001600020600a01600080808152602001908152602001600020600701546040516020016109a9999897969594939291906133b0565b604051602081830303815290604052805190602001206005819055506000806000808152602001908152602001600020600b0160008060018152602001908152602001600020600b01604051602001610a0392919061317a565b6040516020818303038152906040529050600080600060028152602001908152602001600020600b0160008060038152602001908152602001600020600b01604051602001610a5392919061317a565b60405160208183030381529060405290508181604051602001610a7792919061314b565b604051602081830303815290604052600160006005548152602001908152602001600020600b019080519060200190610ab19291906128a2565b506040518060400160405280600681526020017f4a616775617200000000000000000000000000000000000000000000000000008152506001600060055481526020019081526020016000206005019080519060200190610b139291906128a2565b50866001600060055481526020019081526020016000206009019080519060200190610b409291906128a2565b50670de0b6b3a764000086610b5591906136c0565b6001600060055481526020019081526020016000206008018190555084600160006005548152602001908152602001600020600a019080519060200190610b9d9291906128a2565b5083600160006005548152602001908152602001600020600701819055503360026000600554815260200190815260200160002060000160006101000a81548173ffffffffffffffffffffffffffffffffffffffff021916908373ffffffffffffffffffffffffffffffffffffffff1602179055506040518060400160405280601281526020017f4a6167756172204d616e756163747572657200000000000000000000000000008152506002600060055481526020019081526020016000206001019080519060200190610c739291906128a2565b50866001600060055481526020019081526020016000206010019080519060200190610ca09291906128a2565b506005549250505095945050505050565b60006060806060806002600087815260200190815260200160002060000160009054906101000a900473ffffffffffffffffffffffffffffffffffffffff166002600088815260200190815260200160002060010160016000898152602001908152602001600020601001600160008a8152602001908152602001600020601101600160008b8152602001908152602001600020601201838054610d54906137e8565b80601f0160208091040260200160405190810160405280929190818152602001828054610d80906137e8565b8015610dcd5780601f10610da257610100808354040283529160200191610dcd565b820191906000526020600020905b815481529060010190602001808311610db057829003601f168201915b50505050509350828054610de0906137e8565b80601f0160208091040260200160405190810160405280929190818152602001828054610e0c906137e8565b8015610e595780601f10610e2e57610100808354040283529160200191610e59565b820191906000526020600020905b815481529060010190602001808311610e3c57829003601f168201915b50505050509250818054610e6c906137e8565b80601f0160208091040260200160405190810160405280929190818152602001828054610e98906137e8565b8015610ee55780601f10610eba57610100808354040283529160200191610ee5565b820191906000526020600020905b815481529060010190602001808311610ec857829003601f168201915b50505050509150808054610ef8906137e8565b80601f0160208091040260200160405190810160405280929190818152602001828054610f24906137e8565b8015610f715780601f10610f4657610100808354040283529160200191610f71565b820191906000526020600020905b815481529060010190602001808311610f5457829003601f168201915b505050505090509450945094509450945091939590929450565b6000600160006005548152602001908152602001600020600801548234610fb291906136c0565b14610ff2576040517f08c379a0000000000000000000000000000000000000000000000000000000008152600401610fe9906135c3565b60405180910390fd5b818234610fff91906136c0565b1461103f576040517f08c379a0000000000000000000000000000000000000000000000000000000008152600401611036906135c3565b60405180910390fd5b8273ffffffffffffffffffffffffffffffffffffffff166108fc349081150290604051600060405180830381858888f19350505050158015611085573d6000803e3d6000fd5b506040518060400160405280601081526020017f5061796d656e7420436f6d706c6574650000000000000000000000000000000081525060016000600554815260200190815260200160002060120190805190602001906110e79291906128a2565b506040518060400160405280601681526020017f2044656c69766572656420546f20437573746f6d65720000000000000000000081525060016000600554815260200190815260200160002060110190805190602001906111499291906128a2565b50836001600060055481526020019081526020016000206007015461116e919061371a565b6001600060055481526020019081526020016000206007018190555084600080808152602001908152602001600020600c0190805190602001906111b39291906128a2565b5083600080808152602001908152602001600020600d0181905550600080808152602001908152602001600020600c01600080808152602001908152602001600020600d015460405160200161120a9291906134eb565b6040516020818303038152906040528051906020012060068190555084600160006006548152602001908152602001600020600c0190805190602001906112529291906128a2565b5083600160006006548152602001908152602001600020600d0181905550600160006005548152602001908152602001600020600901600160006006548152602001908152602001600020600e019080546112ac906137e8565b6112b7929190612928565b5083600160006005548152602001908152602001600020600801546112dc91906136c0565b600160006006548152602001908152602001600020600f01819055503360026000600554815260200190815260200160002060000160006101000a81548173ffffffffffffffffffffffffffffffffffffffff021916908373ffffffffffffffffffffffffffffffffffffffff16021790555084600260006005548152602001908152602001600020600101908051906020019061137b9291906128a2565b506001600060055481526020019081526020016000206009016001600060055481526020019081526020016000206010019080546113b8906137e8565b6113c3929190612928565b506006549050949350505050565b606060006060600060016000868152602001908152602001600020600c0160016000878152602001908152602001600020600d015460016000888152602001908152602001600020600e0160016000898152602001908152602001600020600f015483805461143f906137e8565b80601f016020809104026020016040519081016040528092919081815260200182805461146b906137e8565b80156114b85780601f1061148d576101008083540402835291602001916114b8565b820191906000526020600020905b81548152906001019060200180831161149b57829003601f168201915b505050505093508180546114cb906137e8565b80601f01602080910402602001604051908101604052809291908181526020018280546114f7906137e8565b80156115445780601f1061151957610100808354040283529160200191611544565b820191906000526020600020905b81548152906001019060200180831161152757829003601f168201915b5050505050915093509350935093509193509193565b606080600080606060016000878152602001908152602001600020600001600160008881526020019081526020016000206004016001600089815260200190815260200160002060010154600160008a815260200190815260200160002060020154600160008b81526020019081526020016000206003018480546115de906137e8565b80601f016020809104026020016040519081016040528092919081815260200182805461160a906137e8565b80156116575780601f1061162c57610100808354040283529160200191611657565b820191906000526020600020905b81548152906001019060200180831161163a57829003601f168201915b5050505050945083805461166a906137e8565b80601f0160208091040260200160405190810160405280929190818152602001828054611696906137e8565b80156116e35780601f106116b8576101008083540402835291602001916116e3565b820191906000526020600020905b8154815290600101906020018083116116c657829003601f168201915b505050505093508080546116f6906137e8565b80601f0160208091040260200160405190810160405280929190818152602001828054611722906137e8565b801561176f5780601f106117445761010080835404028352916020019161176f565b820191906000526020600020905b81548152906001019060200180831161175257829003601f168201915b505050505090509450945094509450945091939590929450565b6001600060045481526020019081526020016000206002015434146117e3576040517f08c379a00000000000000000000000000000000000000000000000000000000081526004016117da90613603565b60405180910390fd5b60011515600360009054906101000a900460ff16151514611839576040517f08c379a000000000000000000000000000000000000000000000000000000000815260040161183090613583565b60405180910390fd5b8073ffffffffffffffffffffffffffffffffffffffff166108fc349081150290604051600060405180830381858888f1935050505015801561187f573d6000803e3d6000fd5b506040518060400160405280601081526020017f5061796d656e7420436f6d706c6574650000000000000000000000000000000081525060016000600454815260200190815260200160002060120190805190602001906118e19291906128a2565b506040518060400160405280601a81526020017f2044656c69766572656420546f204d616e75666163747572657200000000000081525060016000600454815260200190815260200160002060110190805190602001906119439291906128a2565b506040518060400160405280601a81526020017f2044656c69766572656420546f204d616e75666163747572657200000000000081525060016000600754815260200190815260200160002060110190805190602001906119a59291906128a2565b506040518060400160405280601181526020017f5061796d656e7420436f6d706c657465640000000000000000000000000000008152506001600060075481526020019081526020016000206012019080519060200190611a079291906128a2565b50600860009054906101000a900473ffffffffffffffffffffffffffffffffffffffff1660026000600454815260200190815260200160002060000160006101000a81548173ffffffffffffffffffffffffffffffffffffffff021916908373ffffffffffffffffffffffffffffffffffffffff160217905550600160006007548152602001908152602001600020601601600260006004548152602001908152602001600020600101908054611abd906137e8565b611ac8929190612928565b50600160006004548152602001908152602001600020600401600160006004548152602001908152602001600020601001908054611b05906137e8565b611b10929190612928565b5050565b606060006060806001600086815260200190815260200160002060130160016000878152602001908152602001600020601401546001600088815260200190815260200160002060150160016000898152602001908152602001600020601601838054611b80906137e8565b80601f0160208091040260200160405190810160405280929190818152602001828054611bac906137e8565b8015611bf95780601f10611bce57610100808354040283529160200191611bf9565b820191906000526020600020905b815481529060010190602001808311611bdc57829003601f168201915b50505050509350818054611c0c906137e8565b80601f0160208091040260200160405190810160405280929190818152602001828054611c38906137e8565b8015611c855780601f10611c5a57610100808354040283529160200191611c85565b820191906000526020600020905b815481529060010190602001808311611c6857829003601f168201915b50505050509150808054611c98906137e8565b80601f0160208091040260200160405190810160405280929190818152602001828054611cc4906137e8565b8015611d115780601f10611ce657610100808354040283529160200191611d11565b820191906000526020600020905b815481529060010190602001808311611cf457829003601f168201915b5050505050905093509350935093509193509193565b600080600160008481526020019081526020016000206013018054611d4b906137e8565b80601f0160208091040260200160405190810160405280929190818152602001828054611d77906137e8565b8015611dc45780601f10611d9957610100808354040283529160200191611dc4565b820191906000526020600020905b815481529060010190602001808311611da757829003601f168201915b505050505090506000600160008581526020019081526020016000206014015490506000600160008681526020019081526020016000206015018054611e09906137e8565b80601f0160208091040260200160405190810160405280929190818152602001828054611e35906137e8565b8015611e825780601f10611e5757610100808354040283529160200191611e82565b820191906000526020600020905b815481529060010190602001808311611e6557829003601f168201915b505050505090506000600160008781526020019081526020016000206016018054611eac906137e8565b80601f0160208091040260200160405190810160405280929190818152602001828054611ed8906137e8565b8015611f255780601f10611efa57610100808354040283529160200191611f25565b820191906000526020600020905b815481529060010190602001808311611f0857829003601f168201915b505050505090506000600160008881526020019081526020016000206017015490506040518060400160405280600481526020017f54617461000000000000000000000000000000000000000000000000000000008152506000808081526020019081526020016000206000019080519060200190611fa59291906128a2565b50846000808081526020019081526020016000206004019080519060200190611fcf9291906128a2565b5083600080808152602001908152602001600020600101819055508260008080815260200190815260200160002060030190805190602001906120139291906128a2565b5080600080808152602001908152602001600020600201819055508160008080815260200190815260200160002060160190805190602001906120579291906128a2565b5060008080815260200190815260200160002060000160008080815260200190815260200160002060040160008080815260200190815260200160002060010154600080808152602001908152602001600020600301600080808152602001908152602001600020600201546000808081526020019081526020016000206016016040516020016120ed9695949392919061346e565b604051602081830303815290604052805190602001206004819055506040518060400160405280600581526020017f2054617461000000000000000000000000000000000000000000000000000000815250600160006004548152602001908152602001600020600001908051906020019061216a9291906128a2565b508460016000600454815260200190815260200160002060040190805190602001906121979291906128a2565b50836001600060045481526020019081526020016000206001018190555080600160006004548152602001908152602001600020600201819055508260016000600454815260200190815260200160002060030190805190602001906121fe9291906128a2565b5081600160006004548152602001908152602001600020601601908051906020019061222b9291906128a2565b506040518060400160405280601081526020017f41636365707465642026204d6164656400000000000000000000000000000000815250600160006007548152602001908152602001600020601101908051906020019061228d9291906128a2565b506040518060400160405280601081526020017f41636365707465642026204d616465640000000000000000000000000000000081525060016000600454815260200190815260200160002060110190805190602001906122ef9291906128a2565b506040518060400160405280600781526020017f50656e64696e670000000000000000000000000000000000000000000000000081525060016000600454815260200190815260200160002060120190805190602001906123519291906128a2565b506001600360006101000a81548160ff0219169083151502179055503360026000600454815260200190815260200160002060000160006101000a81548173ffffffffffffffffffffffffffffffffffffffff021916908373ffffffffffffffffffffffffffffffffffffffff1602179055506040518060400160405280600d81526020017f5461746120537570706c6965720000000000000000000000000000000000000081525060026000600454815260200190815260200160002060010190805190602001906124259291906128a2565b508460016000600454815260200190815260200160002060100190805190602001906124529291906128a2565b5060045495505050505050919050565b600033600860006101000a81548173ffffffffffffffffffffffffffffffffffffffff021916908373ffffffffffffffffffffffffffffffffffffffff1602179055508560008080815260200190815260200160002060130190805190602001906124ce9291906128a2565b5084600080808152602001908152602001600020601401819055508360008080815260200190815260200160002060150190805190602001906125129291906128a2565b50670de0b6b3a76400008361252791906136c0565b600080808152602001908152602001600020601701819055508160008080815260200190815260200160002060160190805190602001906125699291906128a2565b5060008080815260200190815260200160002060130160008080815260200190815260200160002060140154600080808152602001908152602001600020601501600080808152602001908152602001600020601701546000808081526020019081526020016000206016016040516020016125e995949392919061351b565b604051602081830303815290604052805190602001206007819055508560016000600754815260200190815260200160002060130190805190602001906126319291906128a2565b50846001600060075481526020019081526020016000206014018190555083600160006007548152602001908152602001600020601501908051906020019061267b9291906128a2565b50670de0b6b3a76400008361269091906136c0565b600160006007548152602001908152602001600020601701819055508160016000600754815260200190815260200160002060160190805190602001906126d89291906128a2565b506040518060400160405280601581526020017f4e6f742041636365707465642054696c6c204e6f770000000000000000000000815250600160006007548152602001908152602001600020601101908051906020019061273a9291906128a2565b506040518060400160405280600781526020017f50656e64696e6700000000000000000000000000000000000000000000000000815250600160006007548152602001908152602001600020601201908051906020019061279c9291906128a2565b506000826040516020016127b0919061311e565b604051602081830303815290604052905080876040516020016127d49291906130ef565b604051602081830303815290604052600160006007548152602001908152602001600020601001908051906020019061280e9291906128a2565b503360026000600754815260200190815260200160002060000160006101000a81548173ffffffffffffffffffffffffffffffffffffffff021916908373ffffffffffffffffffffffffffffffffffffffff1602179055508260026000600754815260200190815260200160002060010190805190602001906128929291906128a2565b5060075491505095945050505050565b8280546128ae906137e8565b90600052602060002090601f0160209004810192826128d05760008555612917565b82601f106128e957805160ff1916838001178555612917565b82800160010185558215612917579182015b828111156129165782518255916020019190600101906128fb565b5b50905061292491906129b5565b5090565b828054612934906137e8565b90600052602060002090601f01602090048101928261295657600085556129a4565b82601f1061296757805485556129a4565b828001600101855582156129a457600052602060002091601f016020900482015b828111156129a3578254825591600101919060010190612988565b5b5090506129b191906129b5565b5090565b5b808211156129ce5760008160009055506001016129b6565b5090565b60006129e56129e084613654565b613623565b9050828152602081018484840111156129fd57600080fd5b612a088482856137a6565b509392505050565b600081359050612a1f816138b8565b92915050565b600081359050612a34816138cf565b92915050565b600081359050612a49816138e6565b92915050565b600082601f830112612a6057600080fd5b8135612a708482602086016129d2565b91505092915050565b600081359050612a88816138fd565b92915050565b600060208284031215612aa057600080fd5b6000612aae84828501612a25565b91505092915050565b600080600080600060a08688031215612acf57600080fd5b6000612add88828901612a10565b955050602086013567ffffffffffffffff811115612afa57600080fd5b612b0688828901612a4f565b9450506040612b1788828901612a79565b935050606086013567ffffffffffffffff811115612b3457600080fd5b612b4088828901612a4f565b9250506080612b5188828901612a79565b9150509295509295909350565b600060208284031215612b7057600080fd5b6000612b7e84828501612a3a565b91505092915050565b60008060008060808587031215612b9d57600080fd5b600085013567ffffffffffffffff811115612bb757600080fd5b612bc387828801612a4f565b9450506020612bd487828801612a79565b9350506040612be587828801612a25565b9250506060612bf687828801612a79565b91505092959194509250565b600080600080600060a08688031215612c1a57600080fd5b600086013567ffffffffffffffff811115612c3457600080fd5b612c4088828901612a4f565b9550506020612c5188828901612a79565b945050604086013567ffffffffffffffff811115612c6e57600080fd5b612c7a88828901612a4f565b9350506060612c8b88828901612a79565b925050608086013567ffffffffffffffff811115612ca857600080fd5b612cb488828901612a4f565b9150509295509295909350565b612cca8161374e565b82525050565b612cd981613772565b82525050565b6000612cea82613699565b612cf481856136a4565b9350612d048185602086016137b5565b612d0d816138a7565b840191505092915050565b6000612d2382613699565b612d2d81856136b5565b9350612d3d8185602086016137b5565b80840191505092915050565b60008154612d56816137e8565b612d6081866136a4565b94506001821660008114612d7b5760018114612d8d57612dc0565b60ff1983168652602086019350612dc0565b612d9685613684565b60005b83811015612db857815481890152600182019150602081019050612d99565b808801955050505b50505092915050565b60008154612dd6816137e8565b612de081866136b5565b94506001821660008114612dfb5760018114612e0c57612e3f565b60ff19831686528186019350612e3f565b612e1585613684565b60005b83811015612e3757815481890152600182019150602081019050612e18565b838801955050505b50505092915050565b6000612e556012836136b5565b91507f52657175657374656420466f72205061727400000000000000000000000000006000830152601282019050919050565b6000612e95601a836136a4565b91507f537570706c6965722050617274204973204e6f74204d616465640000000000006000830152602082019050919050565b6000612ed56001836136b5565b91507f20000000000000000000000000000000000000000000000000000000000000006000830152600182019050919050565b6000612f156027836136a4565b91507f456e74657220416c6c205265717569726564204669656c6420496e204d616e7560008301527f66616374757265000000000000000000000000000000000000000000000000006020830152604082019050919050565b6000612f7b6044836136a4565b91507f204d616e756661637475726520416e6420437573746f6d65722050726963652060008301527f4e6f74204d61746368696e6720446570656e64696e672055706f6e205175616e60208301527f74697479000000000000000000000000000000000000000000000000000000006040830152606082019050919050565b60006130076021836136a4565b91507f576974686f757420416c6c205061727473204361722043616e6e6f74204d616460008301527f65000000000000000000000000000000000000000000000000000000000000006020830152604082019050919050565b600061306d6000836136b5565b9150600082019050919050565b60006130876032836136a4565b91507f204f646572696e672054696d6520507269636520416e642043757272656e742060008301527f5072696365204e6f74204d61746368696e6700000000000000000000000000006020830152604082019050919050565b6130e98161379c565b82525050565b60006130fb8285612d18565b915061310682612ec8565b91506131128284612d18565b91508190509392505050565b600061312a8284612d18565b915061313582612ec8565b915061314082612e48565b915081905092915050565b60006131578285612d18565b915061316282613060565b915061316e8284612d18565b91508190509392505050565b60006131868285612dc9565b915061319182612ec8565b915061319d8284612dc9565b91508190509392505050565b600060a0820190506131be6000830188612cc1565b81810360208301526131d08187612cdf565b905081810360408301526131e48186612cdf565b905081810360608301526131f88185612cdf565b9050818103608083015261320c8184612cdf565b90509695505050505050565b600060208201905061322d6000830184612cd0565b92915050565b600060a082019050818103600083015261324d8188612cdf565b905081810360208301526132618187612cdf565b905061327060408301866130e0565b81810360608301526132828185612cdf565b905061329160808301846130e0565b9695505050505050565b600060a08201905081810360008301526132b58188612cdf565b905081810360208301526132c98187612cdf565b90506132d860408301866130e0565b6132e560608301856130e0565b81810360808301526132f78184612cdf565b90509695505050505050565b6000608082019050818103600083015261331d8187612cdf565b905061332c60208301866130e0565b818103604083015261333e8185612cdf565b905081810360608301526133528184612cdf565b905095945050505050565b600060808201905081810360008301526133778187612cdf565b905061338660208301866130e0565b81810360408301526133988185612cdf565b90506133a760608301846130e0565b95945050505050565b60006101208201905081810360008301526133cb818c612d49565b905081810360208301526133df818b612d49565b905081810360408301526133f3818a612d49565b905081810360608301526134078189612d49565b9050818103608083015261341b8188612d49565b905081810360a083015261342f8187612d49565b905061343e60c08301866130e0565b81810360e08301526134508185612d49565b90506134606101008301846130e0565b9a9950505050505050505050565b600060c08201905081810360008301526134888189612d49565b9050818103602083015261349c8188612d49565b90506134ab60408301876130e0565b81810360608301526134bd8186612d49565b90506134cc60808301856130e0565b81810360a08301526134de8184612d49565b9050979650505050505050565b600060408201905081810360008301526135058185612d49565b905061351460208301846130e0565b9392505050565b600060a08201905081810360008301526135358188612d49565b905061354460208301876130e0565b81810360408301526135568186612d49565b905061356560608301856130e0565b81810360808301526135778184612d49565b90509695505050505050565b6000602082019050818103600083015261359c81612e88565b9050919050565b600060208201905081810360008301526135bc81612f08565b9050919050565b600060208201905081810360008301526135dc81612f6e565b9050919050565b600060208201905081810360008301526135fc81612ffa565b9050919050565b6000602082019050818103600083015261361c8161307a565b9050919050565b6000604051905081810181811067ffffffffffffffff8211171561364a57613649613878565b5b8060405250919050565b600067ffffffffffffffff82111561366f5761366e613878565b5b601f19601f8301169050602081019050919050565b60008190508160005260206000209050919050565b600081519050919050565b600082825260208201905092915050565b600081905092915050565b60006136cb8261379c565b91506136d68361379c565b9250817fffffffffffffffffffffffffffffffffffffffffffffffffffffffffffffffff048311821515161561370f5761370e61381a565b5b828202905092915050565b60006137258261379c565b91506137308361379c565b9250828210156137435761374261381a565b5b828203905092915050565b60006137598261377c565b9050919050565b600061376b8261377c565b9050919050565b6000819050919050565b600073ffffffffffffffffffffffffffffffffffffffff82169050919050565b6000819050919050565b82818337600083830152505050565b60005b838110156137d35780820151818401526020810190506137b8565b838111156137e2576000848401525b50505050565b6000600282049050600182168061380057607f821691505b6020821081141561381457613813613849565b5b50919050565b7f4e487b7100000000000000000000000000000000000000000000000000000000600052601160045260246000fd5b7f4e487b7100000000000000000000000000000000000000000000000000000000600052602260045260246000fd5b7f4e487b7100000000000000000000000000000000000000000000000000000000600052604160045260246000fd5b6000601f19601f8301169050919050565b6138c18161374e565b81146138cc57600080fd5b50565b6138d881613760565b81146138e357600080fd5b50565b6138ef81613772565b81146138fa57600080fd5b50565b6139068161379c565b811461391157600080fd5b5056fea2646970667358221220774831a1640ce7b057fb6536db745a9a60b4ed7539744e28e646207824580b2464736f6c63430008000033",
  "immutableReferences": {},
  "source": "// SPDX-License-Identifier: MIT\n\npragma solidity ^0.8.0;\n\ncontract supplyChain{\n  struct Order {\n    string supplierName;\n    uint supplierQuantity;\n    uint supplierPrice;\n    string supplierDate;\n    string supplierPartName;\n\n\n    string manufactureName;\n    uint manufactureReuiredPartQuantity;\n    uint manufactureQuantity;\n    uint manufacturePrice;\n    string manufactureProductName;\n    string manufactureDate;\n    string manufacturerPartName;\n\n\n    string customerName;\n    uint customerQuantity;\n    string customerProductName;\n    uint customerPrice;\n\n    // string owner;\n    string productName;\n    string productStatus;\n    string paymentStatus;\n\n    //for manufacture request\n      string  partName ;\n      uint quantity ;\n      string  date ;\n      string nameOfYourCompany;\n      uint price;\n\n\n  }\n  struct Owner{\n    address ownerAddress;\n    string ownerName;\n  }\n\n  mapping(uint=>Order) registry; //saving data like array\n  mapping(bytes32=>Order) details;// saving data like unique hash form\n  mapping(bytes32=>Owner) owner;\n\n  bool requiredParts=false;\n  bytes32 supplierCreatedHash;\n  bytes32 manufacturerCreatedHash;\n  bytes32 customerCreatedHash;\n  bytes32 manufactureRequestCreatedHash;\n\n  address manufactureAddress;\n  address supplierAddress;\n  address customerAddress;\n\n  event OrderGenerated(string orderno);\n  event MfgTrigger(string orderno);\n  event SupplyTrigger(string orderno);\n  event ReportSubmit(string orderno, uint category, string report);\n\n\nfunction A_manufactureRequest(string memory _partName , uint _quantity , string memory _date , uint _price , string memory _nameOfYourCompany)  public returns(bytes32){\n  //setting owner\n  manufactureAddress =msg.sender;\n  //saving data\n  registry[0].partName = _partName;\n  registry[0].quantity = _quantity;\n  registry[0].date = _date;\n  registry[0].price = _price*10**18;\n  registry[0].nameOfYourCompany=_nameOfYourCompany;\n   //creating hash\n      manufactureRequestCreatedHash = keccak256(abi.encode(\n                                                           registry[0].partName ,\n                                                           registry[0].quantity ,\n                                                           registry[0].date ,\n                                                           registry[0].price ,\n                                                           registry[0].nameOfYourCompany\n                                                          )\n                                               );\n  // saving data on hash\n  details[manufactureRequestCreatedHash].partName = _partName;\n  details[manufactureRequestCreatedHash].quantity = _quantity;\n  details[manufactureRequestCreatedHash].date = _date;\n  details[manufactureRequestCreatedHash].price = _price*10**18;\n  details[manufactureRequestCreatedHash].nameOfYourCompany=_nameOfYourCompany;\n  details[manufactureRequestCreatedHash].productStatus = \"Not Accepted Till Now\";\n  details[manufactureRequestCreatedHash].paymentStatus = \"Pending\";\n  //saving data for hash detail function\n  string memory a = string(abi.encodePacked(_nameOfYourCompany,' ','Requested For Part'));\n  details[manufactureRequestCreatedHash].productName=string(abi.encodePacked(a,' ',_partName));\n  owner[manufactureRequestCreatedHash].ownerAddress = msg.sender;\n  owner[manufactureRequestCreatedHash].ownerName = _nameOfYourCompany;\n return manufactureRequestCreatedHash;\n}\n\n\n  function B_supplierResponse(bytes32 _manufactureRequestedHash) public returns(bytes32){\n  //for balance\n    string memory _partName = details[_manufactureRequestedHash].partName ;\n   uint _quantity = details[_manufactureRequestedHash].quantity;\n  string memory _date= details[_manufactureRequestedHash].date ;\n  string memory _nameOfYourCompany = details[_manufactureRequestedHash].nameOfYourCompany;\n  uint _price = details[_manufactureRequestedHash].price;\n     //saving supplier data\n      registry[0].supplierName = 'Tata';\n      registry[0].supplierPartName = _partName;\n      registry[0].supplierQuantity =_quantity;\n      registry[0].supplierDate = _date;\n      registry[0].supplierPrice = _price;\n      registry[0].nameOfYourCompany = _nameOfYourCompany;\n      //creating hash\n      supplierCreatedHash = keccak256(abi.encode(\n                           registry[0].supplierName,\n                           registry[0].supplierPartName ,\n                           registry[0].supplierQuantity ,\n                           registry[0].supplierDate,\n                           registry[0].supplierPrice,\n                           registry[0].nameOfYourCompany\n                          )\n               );\n\n     // saving data to 32bytes mapping to get all details\n      details[supplierCreatedHash].supplierName = ' Tata';\n      details[supplierCreatedHash].supplierPartName = _partName;\n      details[supplierCreatedHash].supplierQuantity = _quantity;\n      details[supplierCreatedHash].supplierPrice = _price;\n      details[supplierCreatedHash].supplierDate = _date;\n      details[supplierCreatedHash].nameOfYourCompany = _nameOfYourCompany;\n      details[manufactureRequestCreatedHash].productStatus = \"Accepted & Maded\";\n      details[supplierCreatedHash].productStatus = \"Accepted & Maded\";\n      details[supplierCreatedHash].paymentStatus =\"Pending\";\n      requiredParts  = true; // setting required part so manufacture cant made product without parts\n      //setting part ownership to supplier\n      owner[supplierCreatedHash].ownerAddress = msg.sender;\n      owner[supplierCreatedHash].ownerName = 'Tata Supplier';\n      details[supplierCreatedHash].productName = _partName ;\n      return supplierCreatedHash;\n  }\n\n  function C_paymentToSupplierByManufacturer(address payable _supplierAddress)public payable{\n\n    require(msg.value == details[supplierCreatedHash].supplierPrice,\" Odering Time Price And Current Price Not Matching\");\n    require(requiredParts == true,'Supplier Part Is Not Maded');\n    _supplierAddress.transfer(msg.value);\n    details[supplierCreatedHash].paymentStatus =\"Payment Complete\";\n    details[supplierCreatedHash].productStatus = \" Delivered To Manufacturer\";\n    details[manufactureRequestCreatedHash].productStatus = \" Delivered To Manufacturer\";\n    details[manufactureRequestCreatedHash].paymentStatus =\"Payment Completed\";\n      //transfering ownership supplier to manufacturer\n    owner[supplierCreatedHash].ownerAddress = manufactureAddress ;\n    owner[supplierCreatedHash].ownerName = details[manufactureRequestCreatedHash].nameOfYourCompany ;\n    details[supplierCreatedHash].productName = details[supplierCreatedHash].supplierPartName ;\n  }\n\n\n\n  function D_creatingCar(address _manufactureAddress , string memory _productName , uint _productPrice , string memory _date , uint _quantity) public returns(bytes32){\n    require(_manufactureAddress == manufactureAddress);\n    require(msg.sender==manufactureAddress);\n    require(requiredParts == true,'Without All Parts Car Cannot Made');\n    require(registry[0].quantity > 0,'Enter All Required Field In Manufacture');\n      //saving supplier data\n      registry[0].manufacturerPartName = 'Car Frame ';\n      registry[1].manufacturerPartName = 'Car Engine ';\n      registry[2].manufacturerPartName = 'Car Handle ';\n      registry[3].manufacturerPartName = details[supplierCreatedHash].supplierPartName;\n      registry[0].manufactureName = 'Jaguar';\n      registry[0].manufactureProductName = _productName;\n      registry[0].manufacturePrice = _productPrice*10**18;\n      registry[0].manufactureDate = _date;\n      registry[0].manufactureQuantity = _quantity;\n\n      //creating hash\n      manufacturerCreatedHash = keccak256(abi.encode(\n                                       registry[0].manufacturerPartName ,\n                                       registry[1].manufacturerPartName ,\n                                       registry[2].manufacturerPartName,\n                                       registry[3].manufacturerPartName,\n                                       registry[0].manufactureName,\n                                       registry[0].manufactureProductName,\n                                       registry[0].manufacturePrice ,\n                                       registry[0].manufactureDate,\n                                       registry[0].manufactureQuantity\n                          )\n               );\n\n     // saving data to 32bytes mapping to get all details\n      string memory a = string(abi.encodePacked(registry[0].manufacturerPartName,' ',registry[1].manufacturerPartName));\n      string memory b = string(abi.encodePacked(registry[2].manufacturerPartName,' ',registry[3].manufacturerPartName));\n      details[manufacturerCreatedHash].manufacturerPartName = string(abi.encodePacked(a,'',b));\n      details[manufacturerCreatedHash].manufactureName = 'Jaguar';\n      details[manufacturerCreatedHash].manufactureProductName = _productName;\n      details[manufacturerCreatedHash].manufacturePrice =_productPrice*10**18;\n      details[manufacturerCreatedHash].manufactureDate = _date;\n      details[manufacturerCreatedHash].manufactureQuantity = _quantity;\n      //setting carownership to manufacturer\n      owner[manufacturerCreatedHash].ownerAddress = msg.sender;\n      owner[manufacturerCreatedHash].ownerName = 'Jaguar Manuacturer';\n       details[manufacturerCreatedHash].productName =_productName ;\n      return manufacturerCreatedHash;\n  \n  }\n\n  function E_shippedCarToCustomer(string memory _customerName , uint _customerQuantity , address payable _payingToManufacturer , uint _amoutPayingToManufacturer)public payable returns(bytes32){\n    // payment\n       require(msg.value*_amoutPayingToManufacturer == details[manufacturerCreatedHash].manufacturePrice,\" Manufacture And Customer Price Not Matching Depending Upon Quantity\");\n       require(msg.value*_amoutPayingToManufacturer == _amoutPayingToManufacturer,\" Manufacture And Customer Price Not Matching Depending Upon Quantity\");\n    _payingToManufacturer.transfer(msg.value);\n    details[manufacturerCreatedHash].paymentStatus =\"Payment Complete\";\n    details[manufacturerCreatedHash].productStatus = \" Delivered To Customer\";\n\n      details[manufacturerCreatedHash].manufactureQuantity = details[manufacturerCreatedHash].manufactureQuantity-_customerQuantity;\n      //saving supplier data\n    registry[0].customerName = _customerName;\n    registry[0].customerQuantity =_customerQuantity;\n    //creating hash\n      customerCreatedHash = keccak256(abi.encode(\n                                                     registry[0].customerName,\n                                                     registry[0].customerQuantity\n                                                    )\n                                         );\n      // saving data to 32bytes mapping to get all details\n        details[customerCreatedHash].customerName = _customerName;\n        details[customerCreatedHash].customerQuantity =_customerQuantity;         \n        details[customerCreatedHash].customerProductName = details[manufacturerCreatedHash].manufactureProductName ;\n         details[customerCreatedHash].customerPrice = details[manufacturerCreatedHash].manufacturePrice * _customerQuantity;                     \n      //transfering hash ownership manufacture to customer\n      owner[manufacturerCreatedHash].ownerAddress = msg.sender;\n      owner[manufacturerCreatedHash].ownerName = _customerName;\n      details[manufacturerCreatedHash].productName =details[manufacturerCreatedHash].manufactureProductName ;\n\n         return customerCreatedHash;\n  }\n\n  function F_getCustomerDetail(bytes32 _customerCreatedHash)view public returns(string memory customerName , uint customerQuantity , string memory customerProductName , uint customerPrice){\n    return (\n              details[_customerCreatedHash].customerName ,\n              details[_customerCreatedHash].customerQuantity ,\n               details[_customerCreatedHash].customerProductName ,\n               details[_customerCreatedHash].customerPrice\n             );\n  }\n\n  function G_getCarDetails(bytes32 _manufacturerCreatedHash) view public returns(string memory manufacturerPartName , string memory manufactureName ,uint manufacturePrice , string memory manufactureDate , uint manufactureQuantity )\n  {\n      return (\n              details[_manufacturerCreatedHash].manufacturerPartName ,\n              details[_manufacturerCreatedHash].manufactureName ,\n              details[_manufacturerCreatedHash].manufacturePrice ,\n             details[_manufacturerCreatedHash].manufactureDate ,\n               details[_manufacturerCreatedHash].manufactureQuantity\n             );\n             \n  }\n\n  function H_getingSupplierDetails(bytes32 _supplierCreatedHash)public view returns(string memory supplierName , string memory supplierPartName , uint supplierQuantity , uint supplierPrice , string memory supplierDate )\n  {\n      return (\n                details[_supplierCreatedHash].supplierName,\n                details[_supplierCreatedHash].supplierPartName ,\n                details[_supplierCreatedHash].supplierQuantity ,\n                details[_supplierCreatedHash].supplierPrice ,\n                details[_supplierCreatedHash].supplierDate \n      );\n  }\n\n  function I_getManufactureRequest(bytes32 _manufactureRequestCreatedHash)view public returns(string memory _partName , uint _quantity , string memory _date , string memory _nameOfCompany){\n    return(\n           details[_manufactureRequestCreatedHash].partName,\n           details[_manufactureRequestCreatedHash].quantity,\n           details[_manufactureRequestCreatedHash].date,\n           details[_manufactureRequestCreatedHash].nameOfYourCompany\n          );\n  }\n\n  function J_ownerOfHash(bytes32 _hash) view public returns(address _ownerAddress , string memory _ownerName , string memory _productName ,string memory _productStatus , string memory _paymentStatus ){\n    return(\n            owner[_hash].ownerAddress,\n            owner[_hash].ownerName,\n            details[_hash].productName,\n            details[_hash].productStatus,\n            details[_hash].paymentStatus\n          );\n  }\n\n}",
  "sourcePath": "/home/rajnishyadav/Downloads/BC/7SupplyChain/contracts/supplyChain.sol",
  "compiler": {
    "name": "solc",
    "version": "0.8.0+commit.c7dfd78e.Emscripten.clang"
  },
  "schemaVersion": "3.2.2-next.0",
  "updatedAt": "2022-06-25T12:22:52.121Z",
  "networkType": "ethereum",
  "devdoc": {
    "kind": "dev",
    "methods": {},
    "version": 1
  },
  "userdoc": {
    "kind": "user",
    "methods": {},
    "version": 1
  }
}